:020000022000DC
:1070000000000420757302005D7302005F730200CC
:1070100061730200637302006573020000000000E8
:107020000000000000000000000000006773020084
:1070300069730200000000006B7302006D730200B0
:107040006F7302006F7302006F7302006F730200B0
:107050006F7302006F730200959502006F73020058
:10706000C59A0200D59A02006F7302006F73020086
:107070006F7302006F7302006F7302006F73020080
:107080006F730200F19102006F7302006F730200D0
:107090006F7302006F73020079B102006F73020018
:1070A0006F7302006F7302006F7302006F73020050
:1070B0006F7302006F730200000000000000000008
:1070C0006F7302006F7302006F7302006F73020030
:1070D0006F7302006F7302006F7302006F73020020
:1070E0006F7302006F7302006F73020000000000F4
:1070F000000000006F730200000000006F730200C8
:10710000000000000000000000000000000000007F
:10711000000000000000000000000000000000006F
:10712000000000000000000000000000000000005F
:10713000000000000000000000000000000000004F
:10714000000000000000000000000000000000003F
:10715000000000000000000000000000000000002F
:10716000000000000000000000000000000000001F
:10717000000000000000000000000000000000000F
:1071800000000000000000000000000000000000FF
:1071900000000000000000000000000000000000EF
:1071A00000000000000000000000000000000000DF
:1071B00000000000000000000000000000000000CF
:1071C00000000000000000000000000000000000BF
:1071D00000000000000000000000000000000000AF
:1071E000000000000000000000000000000000009F
:1071F000000000000000000000000000000000008F
:10720000354936480A1A02D0072291438D4634493F
:1072100034480A1A06D00722914381F309880222D2
:1072200082F3148830483149314A00F044F831483B
:107230003149324A00F03FF831483249324A00F0D1
:107240003AF832483249334A00F035F83248334987
:10725000334A00F030F833483349344A00F02BF811
:1072600033483449344A00F026F83448344900227F
:1072700000F02CF833483449002200F027F8334856
:107280003349091A082902DB002202604160314AB1
:1072900090471F481F49884205D00268043003B454
:1072A000904703BCF7E700208646EC46002000210B
:1072B000294A9047FEE7884207D0521A05D0037842
:1072C00001300B700131013AF9D17047884202D088
:1072D00002700130FAE770470000042000E003204C
:1072E000000004200000042050CB0200E82A002007
:1072F0003C2B0020D0730200D07302003EBC020081
:1073000050CB0200E82A0020E82A00200CBD020031
:107310000CBD02000CBD02000CBD02000CBD020041
:107320000CBD02000CBD02000CBD02004ECB0200E1
:10733000A4CB02003C2B00203C2B00203C2B002047
:10734000643A0020643A0020643A0020643A002045
:10735000645A00209D73020069B60200FEE7FEE752
:10736000FEE7FEE7FEE7FEE7FEE7FEE7FEE7FEE7F5
:1073700000F002B8FFF7FCBF0F484FF00701884349
:1073800085460E4880470E48016841F4700101604F
:10739000BFF34F8FBFF36F8FFFF732BF09480A4922
:1073A0000A4A884207D0521A05D0037801300B7080
:1073B0000131013AF9D170470000042071B8020090
:1073C00088ED00E00CBD0200E82A0020E82A002039
:1073D0007047000007B5044B0093044A402300F0B7
:1073E00032F803B05DF804FBF17302003D2B00207E
:1073F0002DE9F84388461446B2B10F4B0F4E0325D2
:10740000002743F00109224608EB0701002002F0A3
:10741000EDFB0744241A48B933782BB14FF47A4076
:10742000C847013D02D13570BDE8F88301233370B0
:10743000002CE8D1F8E700BF10BD02003C2B002073
:10744000704702F007BCF0B595B01D4616460846D9
:107450000C4601F071FA1A9B0D93CDE908650025E1
:107460002B46082205A920460A958DF82C500C952C
:1074700001F07FFA079B0293069B03939DF814305B
:107480008DF8115003F00302012A1DD1BDF814201C
:10749000059DC3F3C203C2F383168DF81030B2000A
:1074A00008230EA9204601F064FAC5F3952508AB20
:1074B0000093324602AB0EA9284600F0B3FB2046EB
:1074C00001F03EFA15B0F0BD022AF8D1BDF8165011
:1074D000C3F3C203C5F389158DF810300827082DB2
:1074E0002E4628BF08263B4632460EA9204601F00C
:1074F00040FAAD1B08AB02AA31460EA8374400F093
:10750000F5FB002DEBD1DAE708B5FFF79AFF044849
:10751000042100F0EFFA034B01225A7108BD00BFAD
:10752000FCBC0200E82A0020037813F0040216D005
:1075300003F00303012B03D0022B09D00120704775
:107540000A6800880232C0F3831002440A60F5E73B
:107550000B684288023303EB92130B60EEE7104690
:10756000704700002DE9F04F87B000230446861CC9
:107570000DF107000F4615468DF8073000F002FEAA
:10758000454801683960D0E90132134401335B1A80
:10759000824600F21C4700F5836900F21448B342AA
:1075A0001CD30020002D73D004F00F039B0143F087
:1075B000050363F30F00DAF80020DAF8083013400F
:1075C000033316444AF823009DF80700CAF8006008
:1075D00000F0FCFD012007B0BDE8F08F0121384626
:1075E00000F039FE484600F04EFE404600F04BFEEB
:1075F000DAF80400DAF808B0029000EA0B00033071
:107600000AEB800002A9FFF78FFF029B50BB0BEA39
:1076100003020AEB820203F1020CD26803920133E7
:1076200003EA0B0B0AEB8B0B02F00302012ADBF8D7
:107630000C10CDF808C023D0022A16D0834640464D
:1076400000F024FE10B1029BCAF8043059463846B7
:1076500000F001FEDAE901231344DAF800200133D7
:107660009B1A9CE70BEA0300C9E7BDF80E30C3F391
:10767000891303334FEA114B0CEB93030293DEE7BC
:10768000BDF80C30C3F383134FEA114B6344F5E7A5
:10769000A40544F006008EE7502C00200B4B0C484C
:1076A000FF2210B59A600022C3F81824C3E9002213
:1076B000C3F8142483F8202401F0F7F8044610B925
:1076C000044801F060F9204610BD00BF502C002096
:1076D00088BC02004CBD020030B50A4C71B10A4AA8
:1076E0000A49121BD20800239A4201D1002030BD62
:1076F00031F82350854202D00133F5E7034654F8B0
:107700003300F4E79CBC0200FCBC0200E82A002025
:10771000094B013903EBC000032909D8DFE801F068
:107720000A020406042070470079704740797047C8
:1077300000207047022070479CBC0200034BD3E935
:107740000030C31A58425841704700BF502C0020E7
:107750002DE9F04387B0FFF7F1FF0646002840F01F
:10776000F9807D4DC5F81804BFF34F8F6B68AC6886
:1077700002932340033305EB830002A9FFF7D4FEF5
:10778000029B18B1D5F81824002A5FD004EA03023E
:10779000991C013305EB8202234005EB8303D26879
:1077A000DB68049302F00303022B0392029160D181
:1077B000BDF80E306948C3F38917502FB84628BF6B
:1077C0004FF0500868F38F1308F10801ADF80E3040
:1077D00001F083F80646002800F0A78001F0ACF81D
:1077E0000023082203A9304601F0B9F8029924EADF
:1077F00001020132B8EB820F4FEA820332D95FFAFD
:1078000088F85BB32140DCB2A8EB040803315FFACF
:1078100088F9A046524C05EB8101082342463046C8
:1078200001F09DF834B108F108034A46214630467C
:1078300001F095F8029B033703EB97070297D5F801
:107840001834002B49D1D5F8104459E02A689A42DF
:107850008FD86A60304607B0BDE8F08340491C46C7
:107860009946DAE70C40E11C0823424605EB81010A
:10787000DDE7012B59D1BDF80C303848C3F3831133
:10788000062928BF062161F3891302318900ADF86A
:107890000C3001F022F80646002846D001F04CF8E2
:1078A0000023082203A9304601F059F80027BDF84B
:1078B0000C20C2F38312BB00974203F10803BED22F
:1078C00002994A1C21400331029205EB81010422F6
:1078D000304601F044F80137E9E7304601F030F86E
:1078E000FFF72CFF80F00100C6B2B3E7E3685B79D5
:1078F00023B1236831461B6820469847E3681C681B
:10790000002CF3D1304601F01BF80DF107008DF883
:10791000074000F037FCD5F818340BB9029B6B60B8
:107920009DF8070000F052FCDAE7D5F8104454B98E
:107930000C4B0D480D49C01AC008000440F002006D
:1079400000F062F8CCE7236820469B689847E3681C
:107950001C68ECE700267DE7502C002088BC020064
:107960005C2C00209CBC0200B4BC020034BD0200B0
:107970002DE9F74F224D04460F46924601A90122F8
:107980001846D5F808909B46FFF7ECFD20B3019E02
:107990004FF00008B21CD84508EB020126D1194867
:1079A000002100F029FC80F31000000440EA14409C
:1079B000E400731C04F0380403EA090306EA09062C
:1079C00044F0010405EB8303033644EA881444EAD7
:1079D0008724D86045F8264095F820341BB1FFF77E
:1079E000B7FE0028FBD103B0BDE8F08F09EA010122
:1079F00005EB81015AF82830CB6008F10108CAE78D
:107A0000502C00206C30002000231A46FFF7B0BF36
:107A100007B50123019201AAFFF7AAFF03B05DF8A1
:107A200004FB07B5CDE9002302236A46FFF7A0FF58
:107A300003B05DF804FB00002DE9F3472B4D04462D
:107A4000D01C8946164601A900228008AF68FFF7BE
:107A500089FDA8B3DDF80480AB6808F1020001904D
:107A6000013338401B1AB6EB830F00F103004FEAD5
:107A7000830A05EB80002DD83246494604F031F8E0
:107A80001B48002100F0B8FB80F3100008F101034F
:107A90003B4007EA0807220C05EB8303033742EA61
:107AA0000040E400D86004F0380455F8273044F072
:107AB000020444EA865203F47C131A4345F8272053
:107AC00095F820341BB1FFF743FE0028FBD102B02C
:107AD000BDE8F0875246494604F003F8A6EB0A02D7
:107AE00009EB0A0105F10C00C8E700BF502C00208B
:107AF0006C30002030B50F49D1F810240346002027
:107B0000144634B9DC6820714AB9C1F810342260D7
:107B100030BDE4682579854206D02468F1E7D26853
:107B2000116821601360F3E701300A28E8D14FF0B3
:107B3000FF30EDE7502C0020094A38B50123D2F878
:107B4000104482F820341D4604B938BDE3685D71E5
:107B5000236820465B689847E3681C68F4E700BF29
:107B6000502C002007B503460846197A052911D084
:107B70005B7A2BB1094A0A49019000F0EAFB0198AF
:107B80000849019000F0E5FB019803B05DF804EBB3
:107B900000F0D4BB002AF8D0F2E700BF58BD0200C5
:107BA0005DBD02007DBD020030B5C38885B00446CE
:107BB0000D4633B1144A00921449154A284600F084
:107BC000C8FB217A05291DD0637A4BB1A088FFF745
:107BD0009FFD104B104953F82020284600F0B9FBB8
:107BE000227A0E4BA08853F8222003920021FFF73F
:107BF00073FD039A0A490346284605B0BDE83040A4
:107C000000F0A7BB05B030BD58BD020068BD020042
:107C100060BD0200E4BD02005DBD020008BE0200BE
:107C200080BD02002DE9F04385B01F460C9D002366
:107C300095F80C902B7306460C469046294638461C
:107C4000FFF7B2FFB8F1060F09D8DFE808F0041219
:107C5000181F283340003146284600F07AFB0022E6
:107C600029463846FFF77EFF85F80C9005B0BDE841
:107C7000F08322683146284600F06BFBEFE7D4E939
:107C800000233146284600F064FBE8E7A368009330
:107C90003146D4E90023284600F05BFBDFE7E368C8
:107CA0000193A36800933146D4E90023284600F0ED
:107CB00050FBD4E723690293E3680193A368009320
:107CC0003146D4E90023284600F043FBC7E7636947
:107CD000039323690293E3680193A36800933146F9
:107CE000D4E90023284600F034FBB8E708292DE941
:107CF000F74F80460E4617461C463CD8002593F8A1
:107D00000C901D7319461046FFF74EFFDFF888A050
:107D1000DFF888B0AE4231D918F805205946204620
:107D200000F017FB0135082DF4D11949194DDFF882
:107D300070A0204600F00DFB4FF0000B5E4522D9ED
:107D400018F80B207E2A05D81046019203F0C4FED5
:107D5000019A00B92E225146204600F0FAFA0BF1A2
:107D6000010BBBF1080FE9D1012221463846FFF78C
:107D7000F9FE84F80C9003B0BDE8F08F5146204620
:107D800000F0E7FACEE72946204600F0E2FAE6E7FF
:107D900094BD020092BD020090BD02008ABD0200A7
:107DA00096BD02001FB50021039001AA44F2010014
:107DB000CDE9011100F004F805B05DF804FB000006
:107DC00010B572B6FFF7B8FEFFF7C2FC0028FBD172
:107DD000104B114C1149E41AE408240444F001004A
:107DE000FFF712FE0E4B1B68DB0700D500BE0D49E6
:107DF00044F00200FFF708FEBFF34F8F0A490B4B18
:107E0000CA6802F4E0621343CB60BFF34F8F00BF38
:107E1000FDE700BF9CBC0200B4BC02001CBE020017
:107E2000F0ED00E028BE020000ED00E00400FA05DD
:107E3000D0E90223D1E90201994208BF90422CBF48
:107E4000012000207047000008B50B4801F0BBF985
:107E50000A4B0B49D3E900231218D1E9000143F181
:107E600000038B4208BF824203D212F1807243F1B9
:107E700000031046194608BDF02A002010310020EA
:107E80008831002037B505460C460A4801A900F0A4
:107E900038FC60B10570446001A9064800F05BFC45
:107EA00018B1054801F094F9002003B030BD04205A
:107EB000FBE700BF74310020F02A002038B5184BD2
:107EC0001B78044613B90025284638BD0028FAD08F
:107ED000037F03F0FF05002BF5D0FFF7B5FFD4E9D2
:107EE0000223994208BF904214D3236903B9237730
:107EF000D4E90530984721690029E4D0237F03F0B5
:107F0000FF05002BDFD0D4E90223521843F1000310
:107F1000C4E902230348214601F08AF9D4E700BFEF
:107F20001831002044BE020013B5114B11491868E6
:107F3000019008231048582200F0D0FB044698B95D
:107F40000E4A0F4801A901F02BF8044660B90C480D
:107F5000012101F01BF901230A4A0948194601F0E1
:107F60007DF8094B01221A70204602B010BD00BFF7
:107F700040BE02001C31002074310020ED7F020061
:107F8000F02A0020FFFF7F00183100203AB103687B
:107F90005A614A1E51425141196100207047072021
:107FA000704738B5037F04460D4683B98261FFF7F9
:107FB0004BFF2369401941F10001C4E9020103B1FB
:107FC000256121460020BDE83840FFF75BBF002057
:107FD00038BD0023014603770120FFF753BF00009F
:107FE000014801F0F0B800BFF02A00202DE9F04F61
:107FF00085B0804601F0D2F840B15A4AD2E900314A
:1080000013F1807341F10001C2E9003100214046C3
:1080100001F0D3F838B1544E336823B13068FFF71C
:108020004DFF002333600121404601F0C6F820B126
:10803000FFF70AFF4D4BC3E900014D484A4F4D4E33
:10804000DFF8389103A900F096FB002845D1DFF84E
:108050002491454EDFF828A1484601F0FFF8336827
:10806000002875D07BB13368D0E90201D3E902233F
:10807000994208BF90422DD233681B7F1BB13168F3
:10808000484601F0D5F8484601F0E2F8D0E902B3DD
:1080900007460193FFF7D8FE019BBBEB000463EB9F
:1080A0000105012C75F1000345DBB4F5350F40D314
:1080B000FFF796FF304A02444FF4960300215046E2
:1080C00000F0ECFF00283ED1336813B9404600F0C1
:1080D000BDFF376005B0BDE8F08F0378012B1DD0E0
:1080E000022B09D14FF0000A304601F0B1F8002808
:1080F00034D080F81CA0F7E73BB941680B7F23B967
:1081000001230B77304601F093F803A9184800F0DB
:108110005DFB03A9164800F02EFB96E741683B681B
:10812000994202D100233B60EFE7304601F099F815
:10813000EBE7BA68C0E70021504601F034F8384652
:10814000FFF7BCFE01E00D28F9D00023336083E780
:10815000002BBFD1404600F07DFFBBE7012389F82B
:108160000030D2E71031002090310020883100200B
:108170007431002044BE0200FFFFB400183100201B
:10818000F02A002070B5EFF3108672B60C4A94689E
:1081900001239CB993600B4B0B4DD3F88010294001
:1081A0001160C3F88050D3F8841051604FF0FF3253
:1081B000C3F88420047006B962B670BD0370FAE794
:1081C0009431002000E100E0FC06FFBD084B9A68F6
:1081D00010B55AB150B9EFF3108172B6054A1C6858
:1081E00014605C685460986001B962B610BD00BF4D
:1081F0009431002000E100E010B5034653E8000F81
:108200000A4643E8002494F0000FF7D110BD10B5E2
:10821000034653E8002F42EA010043E8000494F0CB
:10822000000FF6D110BD10B5034653E8000F00EA69
:10823000010243E8002494F0000FF6D110BD10B500
:10824000034653E8002F02EA010043E8000494F0DB
:10825000000FF6D110BD10B5034653E8002F02EB16
:10826000010043E8000494F0000FF6D110BD10B5F2
:10827000034653E8002FA2EB010043E8000494F00A
:10828000000FF6D110BD0121FFF7C1BF0021FFF79C
:10829000CABF10B590B1D0E9012301689B1ADBB2C7
:1082A0000A60013BDBB2FF2B026802D10020107193
:1082B00010BD11684C1C14600B70F2E70E20F7E73C
:1082C00037B5054600240DF107008DF80740FFF78C
:1082D00059FF2A686B68116899420ED9481E1060D0
:1082E00011F8014CEB68298A01FB0434AB68117961
:1082F0001B1ADBB2994238BF13719DF80700FFF7D4
:1083000065FF204603B030BD37B5054600230DF1AB
:1083100007000C468DF80730FFF734FF2A68136812
:10832000591C1160E968641A298AB4FBF1F41C70C5
:108330009DF80700FFF74AFF03B030BD826810B513
:1083400004462AB143690168006998470023A36085
:1083500010BD0EB403B5039921B104AB01AA01937A
:1083600000F06EF802B05DF804EB03B0704782686D
:1083700030B40468551C8560A154D0E901329A429A
:1083800002D330BCFFF7DABF30BC70472DE9F84F9D
:108390009846DDE90A43154682460F460A464FF0E5
:1083A0000109AA420FD2C14538BFC14613F0010BE3
:1083B00001D16CB900240126B8F1010F1BD908F1D5
:1083C000FF386E43F8E709F10109B2FBF5F2E8E77F
:1083D0009B070ED5B8F1000F0CBF30262026A14513
:1083E000E9D2013C31465046FFF7C1FF002CF6D1DF
:1083F000E0E72026F3E7B7FBF6F39D42E1D9DFF88B
:108400003C80B7FBF6F3504618F8031006FB1377D1
:10841000FFF7ADFF3346AB42B6FBF5F6F1D2BBF149
:10842000000F02D00CB1A14501D3BDE8F88F202187
:108430005046013CFFF79BFFF4E700BF50BE02002F
:108440002DE9F74F054617468846002900F042817E
:1084500018F8011B49B92B7B002B00F03B81284603
:1084600003B0BDE8F04FFFF769BF252940F0B780A2
:10847000002698F800302D2B424608F1010823D041
:10848000302B24D02B2B25D000242A2B02F10101E4
:1084900023D13B681A1D1B683A601C440A461378B6
:1084A0002E2B26D101324FF0000A104610F8011B86
:1084B000A1F1300CBCF1090F1DD80A2303FB0A13EC
:1084C000A3F1300A0246F0E746F00106D1E746F094
:1084D0000206CEE746F00406CBE711F8013CA3F113
:1084E00030000928DBD80A2202FB0434303C0A465B
:1084F000CBE74FF0000A12F8011B01F0FB006828DF
:108500009046F8D0782909D86F290CD8632962D011
:1085100022D8252963D0582900F0888098F80030A7
:10852000002B95D197E770390829F7D801A353F8A4
:1085300021F000BFAF8602001D8502001D850200EC
:108540003D8602001D8502001B8602001D8502007B
:108550001D8502002D860200642901D06929DDD124
:108560003A68D2F80090111D89EAE9723960A2EBED
:10857000E9724FF0010B092A35DCD34538BFD346E9
:108580002CB1B9F1000F01DB720700D5013CB30734
:1085900002D5BAF1000F03D0F00701D44CBB002480
:1085A000B9F1000F2DDAC9F100092D212846FFF796
:1085B000DEFE06F00302022A04D1BAF1000F01D157
:1085C0001CBB0024CDE9004653460A2249462846F2
:1085D000FFF7DCFEA2E73B681A1D19783A602846CF
:1085E000FFF7C5FE9AE70A230BF1010BB2FBF3F28A
:1085F000C1E7A345D4D220212846013CFFF7B7FEAE
:10860000CCE77107D5D52B21D0E7A345DAD23021AD
:108610002846013CFFF7ABFED2E73968CDE90046BA
:108620000A1D3A6053460A220968D0E739680A1DD4
:108630003A60CDE9004653461022F5E73B681A1D23
:108640003A6016F00106D3F8009028D1B9F1000F76
:1086500003D0484603F0C3FA0646B44200D904BB2F
:1086600009F1FF3919F8011F00293FF457AF2846D7
:10867000FFF77DFEF6E728460136FFF778FE19F88A
:1086800006100029F7D1A642BFF448AF002C3FF4F2
:1086900045AF20212846013CFFF769FEF3E700269D
:1086A000EDE720212846013CFFF761FED5E73B6856
:1086B0001A1D3A60302128461C68FFF758FE7821C1
:1086C0002846FFF754FE00220823CDE90032214658
:1086D00010227CE703B0BDE8F08F00BF10B561B198
:1086E000B2FBF3F403FB1424A4B244B9C0E90014B0
:1086F00084608281C381204610BD0E20FCE70920E2
:10870000FAE737B550E8013F9DB2C4892544848912
:10871000A54228BF2D1B0489A54202BFBFF32F8F9E
:10872000002207E0C5EA030540E80154002CE9D126
:108730004FF001028DF803200193019B9DF8032067
:108740000B6002F0FF0322B10B880068184403B0ED
:1087500030BD1846FBE70A884B889A4209D150E899
:10876000012FC2EA024240E80123002BF7D1012089
:1087700070470020704737B550E8023F1FFAA3F555
:10878000C488A54202BFBFF32F8F00220DE0C48929
:1087900025448489A54228BF2D1BC3EA054540E82E
:1087A0000254002CE8D14FF001028DF80320019310
:1087B000019B9DF803200B6002F0FF0322B14B8860
:1087C0000068184403B030BD1846FBE70A884B88A0
:1087D0009A4209D150E8022FC2EA224240E802231D
:1087E000002BF7D1012070470020704701F01F02D5
:1087F0004B090121914000EB8300FFF708BD01F018
:108800001F0301229A404B0900EB8300D143FFF77D
:1088100016BD4B0901F01F0150F82300C84000F0BD
:10882000010070472DE9F84FB0F806A04579D2F85D
:1088300000B09DF828900AFB05F5043D88460BEB37
:108840000301A94203F1040488BFA5EB030BB4FBA9
:10885000FAF607460AFB1644C2F800B04EB9AAEB76
:1088600004055D4528BF5D46BBF1000F04D1BDE89E
:10887000F88F3F68013EF1E7043408EB06003C4402
:108880002A46B9F1000F0DD02146ABEB050B03F0E2
:1088900028F9DA452E443F6855464FF0000428BFBA
:1088A0005D46E1E701462046EFE7FFF7F2BCF8B589
:1088B00046790146721E0546002393422D6803D374
:1088C0000024A64202D8F8BD0133F6E70F68284617
:1088D000FFF71AFD01343946F3E72DE9F843068A1C
:1088E000CD1C0746FFF7ECFC043E35440446B5FBBF
:1088F000F6F5F0B14FF48073EDB28380C680013D90
:10890000076081464FF00008A84512D23846FFF7AD
:10891000D7FC064648B163790133637108F1010859
:10892000C9F8000007608146EEE72046FFF7BFFF69
:1089300034462046BDE8F88301210430FFF78BBCA4
:1089400010B5012104460430FFF791FC10F0FF0F31
:1089500004D12046BDE81040FFF7A9BF10BD1FB5E8
:1089600003920022009203AAFFF75CFF05B05DF8B6
:1089700004FB1FB503920122009203AAFFF752FFE6
:1089800005B05DF804FB836800225A60C3E9042245
:108990009A60DA601A60704710B50D49A1F59472BB
:1089A000914201D800200FE08C1AE30F03EBE4039F
:1089B0005B1002EBC30452F83330834205D802D275
:1089C00004F10802ECE7606810BD2146E8E700BF4B
:1089D00058C3020008B5FFF7DFFF024B002808BFAD
:1089E000184608BD1AC202002DE9F843046805467E
:1089F00094F8200000F0D8FE04F11807FF264FF08D
:108A0000FF394FF00008207AFF2802D000F0CCFE9A
:108A10002672607AFF2802D000F0C6FE66722068D7
:108A2000431C03D000F03AFDC4F8009084F80B809A
:108A30000C34BC42E7D16868BDE8F84300F0D0BF11
:108A40002DE9F041134EDFF850800C460025012738
:108A500006EB4106735D5BB1735D013BDBB27355A1
:108A6000735D93B958F824301B682046DB6998473A
:108A70004DB167B1084B53F824300221BDE8F041F5
:108A8000586801F016B80125E4E70027F0E7BDE8D3
:108A9000F08100BFB9310020A031002010B540683E
:108AA0000B4902798C5CFF2CE3B20DD0FE2B0DD06C
:108AB000006803F5A87350F82330064850F82200E8
:108AC000984203D1FF238B54002010BD0120FCE706
:108AD000B4310020C43100202DE9F74F03689046DF
:108AE00093F82120022A04460F4640F099800C2575
:108AF0004D435A195268904509D1DB691BB90020D2
:108B000003B0BDE8F08F426810799847F7E7FFF7A8
:108B1000C5FF8346002840F085806368DFF810A118
:108B20001B79FE220AF80320266896F8200000F040
:108B300097FED146B8F1000F1FD13544687A00F096
:108B40008FFE287A00F074FE63681B79FF220AF812
:108B500003200C2303FB07662368C6F80480DB6947
:108B6000002BCCD063681A792F4B03EB4203022110
:108B7000D955606800F08AFFC1E7B169884507D31D
:108B800035441FFA81F8287A00F06AFE687AD9E73E
:108B900007EB47034FEA830A06EB830360685A68D2
:108BA000914238D0002A36D0904534D25B4603211A
:108BB00000F03EFF636896F820B0196856F80A0086
:108BC000354401F5A671AB7A01910BB300F0BCFC02
:108BD00002460199584600F00BFE96F8200000F07E
:108BE00027FE6368114A1B7909F8037042F8238055
:108BF0000C2505FB0765606800234246394600F0F6
:108C000017FF287A00F014FE687A00F011FEA0E742
:108C100000F08CFCDCE70379FF2209F80320E7E78A
:108C200008206DE711206BE7B9310020C431002026
:108C3000B431002003681B8B5A436423B2FBF3F268
:108C400092B2FFF749BF00002DE9F04F2DED028BE6
:108C500089B0044602928A46002900F046810568E0
:108C600095F82130002B40F0428100F01DFB08B147
:108C7000852845D100F098FB002838D09D4B9E4EAA
:108C80001B6803F0F003303B18BF01233370FF2350
:108C900085F820304FF6FF7300222B814FF0FF3311
:108CA000EA722B60EA75AB82EB6005F1200000F000
:108CB00047FD0396074600BB0AF10803804604936C
:108CC0005FFA88F308EE103A5AF828305A1C00F080
:108CD0009D80266896F82110B9B108262046FFF736
:108CE00083FE304609B0BDEC028BBDE8F08F00F08A
:108CF00023FB0028C2D00326F3E72046FFF774FECB
:108D00000426EEE74FF00108DAE7049A05934FF0E6
:108D10000C0909FB08F912F808B006EB090218461D
:108D2000516082F80AB003228DF81820BBFA8BF24A
:108D300052098DF8192006A901228DF81A2000F099
:108D40003DFBE0B9059B46F809300122BBF1000F5D
:108D500000F0B5801F2B86BF684903F01F034FF05A
:108D6000A0419A40C1F80C250C2303FB08F303F142
:108D700008003044059300F0E3FC059B08B104268D
:108D8000ACE703F109003044059300F0D9FC059BE2
:108D90000028F4D133440593187A00F061FD059B57
:108DA000587A00F05DFD56F80900BBF1000F00F0A5
:108DB000918000F0C9FB834656F8090000F0B6FB2D
:108DC000626811680C2202FB08664FEA880303F50B
:108DD000A073194481465A46307A00F009FD636851
:108DE000707A19684A4601F5A47100F001FD01236B
:108DF000F3726368424A1B7902EB430318EE101AC0
:108E00000022204603F80820FFF766FEB8F1000FA5
:108E10003FF478AFDAF81030B3F5805F01D3092F53
:108E200060D1039B1B7813B1012F38BF01270023AA
:108E30008DF8193060688DF818704FF4E063ADF864
:108E40001A3003792F4A079306A900F047FD06461A
:108E500000287FF443AF6068DAF810200368D3F885
:108E60001075FFB24FEA127CC7F1200112010CFA13
:108E700001F1A7F1200322FA07F72CFA03F30F43BD
:108E80001F434FF00108AF6100F0CEFD04233A46C6
:108E90006068CDF80080022100F0E3FD02216068E7
:108EA00000F007FE029BEB616368174A1B7985F8A7
:108EB000218042F82340154AFF21D15411E71F2B8E
:108EC00086BF0E4903F01F034FF0A0419A40C1F83E
:108ED000082549E700F02AFB834656F8090000F010
:108EE00033FB6DE75B08013796E70B26F9E60826AA
:108EF000F7E600BFE80F00F0D83100200003005073
:108F0000B9310020418A0200A0310020B431002094
:108F10002DE9F0470768DFF86890002604463D46D3
:108F2000B0464FF00C0A63681B7909EB430303F862
:108F30000680EB7A73B1236828680AFB0633997AB6
:108F4000B1FA81F1490900F00DFB286800F0DCFA64
:108F5000C5F804800C3576B16068084A0379FF21B2
:108F6000D15400F061FD606800F020FD022387F815
:108F70002130BDE8F0870126D5E700BFB4310020DD
:108F8000B9310020435882B03BB1002343504358CD
:108F90000193019B012002B070471846FBE70000D7
:108FA000F8B5224B4679224C43F82620214A224B21
:108FB0009B1A04EBC602DB0812791B04F70032B1DE
:108FC00043F002001D49FEF71FFD0820F8BD0268AE
:108FD0000D88C2F8085590F9045002798978002D5F
:108FE000ADBF05F1604CDFF85CC002F00F0E0CF570
:108FF000614C4FEA4111C9B2B4BF0CF80E108CF8A5
:1090000000136D090121DFF840C002F01F0201FAD0
:1090100002F24CF82520E21944F83600117143F0B1
:1090200003000749FEF7F0FC0020CFE7E431002001
:10903000DC3100209CBC0200BCBC020058C3020012
:109040007AC3020014ED00E000E100E003680122B1
:109050001A607047036801225A60704773B501F1C6
:109060005005AD000068ADB24FF480348C4000264E
:10907000C0F80843C0F84843465101F5A871455966
:10908000019522F07F42019D40F82120C0F8444321
:109090000BB1C0F8044302B070BD00002DE9F74FDA
:1090A0000D4622F07F4402684FF4803705F15006E8
:1090B0008F408046B60002EB8500C2F84873B6B216
:1090C000C2F80873D2F8041599464FF0000BD0F897
:1090D0004035C0F8401542F806B05B1A925900922C
:1090E00023F07F43012B009A4FEA850A0CD1264BCF
:1090F0004FF4806043F001039847D8F8003043F8FC
:1091000006B09B590193019BD8F80010D1F8046573
:10911000C1F84473A31B23F07F43012B1CD11A4BCE
:1091200005F5A875013443F0010341F825404FF4DB
:1091300080609847D8F80030D3F804359E4209D1B2
:10914000D8F800300020C3F84473C3F8047303B0A8
:10915000BDE8F08F0D20FAE78A44C9F1FF13CAF881
:109160004045D1F80405221A013A22F07F4203F566
:109170007F439342EED3002AE2D10134CAF840453E
:10918000D1F804359842DAE790C30200036802225E
:10919000C3F8442309B1C3F80423704700684FF4AF
:1091A0008271FFF7EFBE4FF4803303FA01F10368D9
:1091B000C3F84813C3F8081370475031890000689A
:1091C00089B2FFF7DFBE0368D3F8040570470000DB
:1091D00090F9043001215A0903F01F0301FA03F347
:1091E0004032024941F82230704700BF00E100E000
:1091F000024B034A1B681068184700BFE431002087
:10920000DC3100200B684A684360934208BF0023AA
:10921000016008BF43607047436843B102689168CA
:1092200052680B449342436004BF0023436070477D
:1092300070B5446806460D46206818B1B3682946E3
:10924000984718B923682B60256070BD2468F3E740
:109250004368186808B102681A6070474368186864
:1092600070474368186800B97047884203D10268A4
:109270001A600120704703460068F4E7064B10B5FA
:1092800000241C70054B1C60BFF35F8F0449054828
:10929000FFF7B8FF204610BDF0310020F431002068
:1092A000A8C30200E8310020034B187810B901224E
:1092B0001A70704785207047F831002000F1804017
:1092C00000F5C040002382B0036003680193019B56
:1092D00002B0704703681F2B83BF03F01F030360B6
:1092E00001484FF0A04070470003005007B50190BF
:1092F00001A8FFF7EFFF019B00EB8300D0F80037D8
:1093000023F44033C0F80037D0F8003743EA014176
:10931000C0F8001703B05DF804FB0000054B4FF0E8
:10932000FF32072843F8202084BFC01880F8582057
:10933000704700BFFC31002010B5174C94F86A301C
:1093400043BB04F130033021FF22013911F0FF014A
:1093500003F8012BF9D1C8B2FFF7E0FF01310C2966
:10936000F9D1062200210D4802F0E4FB0C4BC0228B
:1093700083F8062340221A604FF4BE70FFF79EFF69
:10938000084B4FF00042C3F80423012384F86A30ED
:10939000002010BD0820FCE7FC31002060320020D6
:1093A00000E100E000600040034B93F86A000038E1
:1093B00018BF0120704700BFFC31002037B5354B86
:1093C0001A18044692F93000013061D188780028DB
:1093D00052D01846002250F8045B013546D11819C6
:1093E00080F83020002043F82200920002F18042F1
:1093F00002F5C0420B78D2F81055487825F499153B
:109400001B04000525F4F85500F4801003F44033E4
:10941000C2F8105503432002D2F8105500F47C50D6
:1094200003432B43C2F810354A780194012A01A85E
:1094300026D1FFF74FFF019B9A40C0F8082501A8ED
:109440000194FFF747FF019B134903F5E0730322E3
:1094500040F8232024FA02F2012304F0070003FA63
:1094600000F08B5C18438854002003E00132082A86
:10947000B1D1042003B030BDFE2382F83030D3E7F1
:10948000FFF728FF019A01239340C0F80C35D6E777
:109490000820EFE7FC3100206032002037B5174C80
:1094A0002518014695F83000072809D8FFF736FF40
:1094B00095F93030124A03F5A273002042F82300D8
:1094C0006318FF220F4D83F83020CC0801F007030A
:1094D00001229A402B5D13420DD001A80191FFF7A4
:1094E000F9FE019B03F5E073022140F823102B5D88
:1094F00023EA02022A5503B030BD00BFFC31002030
:109500000060004060320020074B184490F9303072
:109510009B0003F1804303F5C043D3F8102542F0CC
:109520000302C3F810257047FC310020054B184496
:1095300090F930000C308000C0B200F1804000F59E
:10954000C0407047FC310020054B184490F93000B2
:1095500018308000C0B200F1804000F5C040704774
:10956000FC3100200A4B1844003990F930304FEAA2
:10957000830303F1804303F5C04318BF0121D3F8EF
:10958000102522F4801242EA0152C3F810257047D8
:10959000FC3100202DE9F04F002489B0CDE90244D0
:1095A000624D4FF48072012102F1804303F5C04304
:1095B00090B21B68012B06D1D5F804330B4202D0C0
:1095C000FFF77CFE0C430432B2F5907F4FEA410175
:1095D000EAD1574B1B68012B0ED14FF4BE70FFF739
:1095E0006DFE4FF0A04344F00044D3F810350293D1
:1095F000504BD3F81035039314F0FF0F1AD04E4F91
:1096000000250126344210D0AB0003F1804303F55E
:10961000C043D3F81005D3F8101557F8253023B1FF
:10962000C1F30141C0F3052098470135082D4FEAE9
:109630004606E7D1002C75DA04AF002304937B6063
:109640004FF0FF33CDE90633DFF8EC90DFF8EC8024
:109650000026354618F9012B531C4AD0C2F3C2002C
:109660000123D4B202F03F0B02F0070203FA02F228
:1096700008AB191811F8083C13423AD009EB0B0358
:10968000A40993F9303059F823A0BAF1000F08D19A
:10969000032C2ED117F800C04CEA020C07F800C0CA
:1096A00001E0032CF6D001A8CDF804B0FFF712FEBC
:1096B000019B11F8181C03F5E07C114250F82C00B6
:1096C000C0F3014005D0022813D1032C0BD1214651
:1096D00004E003280DD1032C05D102215846FFF7E1
:1096E00005FE0135EDB2BAF1000F02D02146584611
:1096F000D0470136042EADD1A5B14FF0A043029959
:10970000D3F8102503F540739142D3F8103502D1F8
:109710000399994206D002920393049A059B0692FC
:10972000079393E709B0BDE8F08F00BF00600040E9
:109730007C61004000030050FC3100205C320020BE
:109740002DE9F74F4FF00009154D164F06464FF023
:10975000040AC8465FFA89FB01240DF1070004FAE8
:109760000BF48DF80780FEF70DFD2C4208D03B6806
:1097700014EA030201BF23433B6086F800B092461F
:109780009DF80700FEF722FDBAF1000F03D0A543B4
:1097900009F10109DED1504603B0BDE8F08F00BFEA
:1097A000FFFF010068320020012337B503FA00F5FE
:1097B000C5F31003ABB10C4B0024C3F808550DF1F1
:1097C00007008DF80740FEF7DDFC084B186820EA1B
:1097D000050018609DF80700FEF7F8FC204603B06E
:1097E00030BD0720FBE700BF00F0014068320020D9
:1097F00010B5A1B19AB101238340C3F3100484B121
:109800000A4C246823420ED0C00000F1804000F5CD
:10981000F830C0F81015C0F81425002010BD0E2037
:10982000FCE70720FAE70820F8E700BF68320020CD
:10983000012202FA00F3580C400440B91BB1064A59
:109840001268134205D0054AC2F804357047072054
:1098500070470820704700BF6832002000F00140C8
:10986000012202FA00F3580C400440B91BB1064A29
:109870001268134205D0054AC2F808357047072020
:1098800070470820704700BF6832002000F0014098
:109890002DE9F743002406460F4600F5A0754FF466
:1098A0008038A1462B688BB1D6F8043308FA04F24D
:1098B0001A420BD0C5F800902B680193019BA300BE
:1098C00003F5A07398B2D7E9003198470134042C0E
:1098D00005F10405E6D103B0BDE8F083F7B50679DC
:1098E0002F4D0C237343EF183C7A002C56D1EA50CD
:1098F0004B687B60477903682246D0B2874244D8E0
:1099000043F30734C878002CA8BF04F16047C3F3C1
:109910000732BABF234F02F00F0C07F561474FEA39
:109920004010C0B2B4BF07F80C0087F80003640908
:1099300001201D4F02F01F0200FA02F247F8242016
:10994000D3F804454A7824F0030402F003022243CA
:10995000C3F80425D3F808458A7824F0030402F0FC
:1099600003022243C3F808250A78D3F8104502F011
:109970000F0224F00F010A43C3F810250C2303FB48
:1099800006552872002003B0F0BD900000F5A070CD
:1099900001321C50185801900198AEE70820F2E7F8
:1099A0006C32002014ED00E000E100E003680122C9
:1099B0001A600379034A0C2101FB032302221A7265
:1099C000704700BF6C3200200368044901221A610D
:1099D00003790C2000FB03131A7270476C320020CD
:1099E00038B5036843F30732C3F304355209012144
:1099F000A94020320A4D45F822100446D3F800222F
:109A000000254FF0FF32C3F80052C3F80823FFF7D8
:109A1000DBFF2379034A0C2101FB03231D7238BDB0
:109A200000E100E06C32002003680122DA60704738
:109A300037B54FF4803400688C407BB18B0003F560
:109A4000A0730025C550C3580193019BC0F804437F
:109A500001F5A87140F8212003B030BDC0F80843DB
:109A6000F6E770B4046840F20116D4F800528E4054
:109A700025EA0605C4F80052D4F800522B43C4F876
:109A800000329DF80C3070BCFFF7D2BF8B0003F59D
:109A9000A07302689BB20020D05082B0D3580193CB
:109AA000019B4FF4803303FA01F1C2F8041302B0B2
:109AB000704702684FF4803303FA01F1C2F80813CB
:109AC0007047000001490248FFF7E2BE6C320020F7
:109AD0000080004001490248FFF7DABE78320020DA
:109AE000009000400369C1688B429DBF8268D21814
:109AF00002F1FF3203F1FF3394BF501A581A704736
:109B00002DE9F843D0E902940546A9EB0408406822
:109B1000904520440F46144404D901F0E2FFEC6064
:109B2000BDE8F8834246A4EB090401F0DAFF686857
:109B3000224607EB0801F0E72DE9F843C568064621
:109B4000894617464FF000083469B3687068A5422B
:109B500028BFE418013C621B5C1BBC4228BF3C468A
:109B6000944228BF144649462844224601F0B9FFD2
:109B7000B3682544AB4208BF00253F1BA044A14465
:109B8000F560E1D14046BDE8F883000010B5114C06
:109B9000114AA2610223C4E90433104BE361A264B9
:109BA0004FF400730E4A0F492362E264002310222F
:109BB000E01DA3626362E362A3656365E3652265FA
:109BC00001F0EBFF0849204601F0E7FF2023A371D5
:109BD00010BD00BF84320020C5C302000C3300203A
:109BE000FC320020CEC30200D2C30200F8B5184CEC
:109BF000182300FB033503FB00402544C46A012CF5
:109C00000F4616460FD0022C1AD0F4B92846FFF79B
:109C100069FF864205D8324639462846FFF770FF6D
:109C200034462046F8BD2846FFF75CFF864234469E
:109C300028BF0446224639462846FFF761FFF0E771
:109C40002846BDE8F840FFF777BF0024E9E700BFEA
:109C500084320020FFF79ABF6DDF704779DF7047CD
:109C60007DDF704764DF70472DE9F04F85B0002538
:109C70000E9CBDF83CB0B4F800A001910746904698
:109C80001E46A9463A884A450DDC45B12388013B6A
:109C9000A3EB0A039BB2FF2B3AD806F80A30002048
:109CA00005B0BDE8F08F7A6852F8290003900022D1
:109CB0000DF10B0103A8FFF7D5FF0028F0D19DF8A7
:109CC0000B20424521D12288002D14BF0020022004
:109CD00002EB0801014459451ADC3DB9013292B248
:109CE000019B2280B35422880132228022880DF108
:109CF0000B01324403A8FFF7B5FF0028D0D121881B
:109D00009DF80B200A442280012509F10109B9E7D9
:109D10000C20C5E72DE9F341089FBDF824801546C6
:109D2000CDE90078022204461E46FFF79DFF50B998
:109D30003346102229462046CDE9087802B0BDE816
:109D4000F041FFF791BF02B0BDE8F0812DE9F04F7F
:109D500000231788138090F82D3085B006460D46F5
:109D6000144653B3082F01D80C2027E102A8FFF7AF
:109D700073FF002840F0228123880822EA542388B8
:109D800001339BB21B222380EA542088013080B229
:109D9000208006220DF10901284401F0A2FE23884B
:109DA0009DF8082006339BB212F0FE0218BF012274
:109DB0002380EA54238801332380B378FBB12388BE
:109DC0000433BB42D0D802A8FFF748FF002840F078
:109DD000F58023880322EA54238801339BB2192299
:109DE0002380EA542388BDF8082001339BB2E91888
:109DF0002380EA54120A4A70238802332380F278BF
:109E00009AB12388D91CB942AED80221E9542388DB
:109E100001339BB201212380E95423880B449BB278
:109E20002380EA5423880B4423807268AAB12388D4
:109E3000D91CB94298D8022192F90020E95423880C
:109E400001339BB20A212380E954238801339BB25A
:109E50002380EA542388013323803389002B40F088
:109E6000A180338A5BB1CDE900472B46072203214D
:109E700006F11000FFF74EFF002840F09F80338B63
:109E80005BB1CDE900472B461522142106F11800DD
:109E9000FFF740FF002840F09180326A002A40F02E
:109EA0009080D6F82480B8F1000F30D0B8F8043094
:109EB0002188981C8A1C0244BA423FF655AFFE28FE
:109EC0003FF652AF03336B54238801339BB2FF221A
:109ED0002380EA54238801339BB22380B8F8002002
:109EE000EA54E918120A4A702088023080B22080B1
:109EF000B8F804205AB1D8F8081000296BD02844CB
:109F000001F0EFFD2388B8F804201344238096F86D
:109F10002C30002B40F09A80307800284ED03388C7
:109F2000012B58D0228802F1020CBC453FF61CAF31
:109F3000012805D17378023313449F42FFF414AF14
:109F4000023FBF1ABFB202A905EB0C00ADF80870C2
:109F5000FFF786FE90BB3178BDF80830022900F08B
:109F6000BA8072789A4202D3BB4240F2B280012991
:109F700040F0B380974293B2C0F0AF80ADF80830A4
:109F80000821BDF80830FE2B3FF6EEAE22880133E3
:109F9000AB542288013292B22280A9542288134401
:109FA00023800BE0CDE900472B460622022106F173
:109FB0000800FFF7AFFE00283FF453AF05B0BDE83F
:109FC000F08FB4F800C00CF10603BB423FF6CCAEF4
:109FD0001188052901D80720F0E76FF4486E01EBDE
:109FE0000E039BB24FF27D3E7345F4D95388052B87
:109FF000F1D96FF44860181880B27045EBD94FF66C
:10A00000FF70814203D0834201D09942E3D80523F7
:10A0100005F80C30238801339BB212212380E954C8
:10A02000238801339BB223801188E954E818090A78
:10A030004170238802339BB223805288EA54E91886
:10A04000120A4A702388023323802AE7B36A002B5E
:10A05000C1D04FF000094FF00C0A4FF0160B96F8E4
:10A060002C305FFA89F293427FF656AFB16A0AFB51
:10A0700002F201EB0208B8F80430981CFE283FF603
:10A0800073AE208803332B54238801339BB2238083
:10A0900005F803B0238801339BB223808A5AEA541F
:10A0A000E918120A4A702088023080B22080B8F87D
:10A0B00004205AB1D8F8081000298CD0284401F0A7
:10A0C00010FD2388B8F804201344238009F1010906
:10A0D000C5E7092155E7BB42FBD9ADF808704FE74A
:10A0E00070B5E8B14AB116880024B44203D305190B
:10A0F0006D789D4208D0A14201D8002010E0055D96
:10A1000001352C44A4B2F0E7A142F6D9005D013834
:10A11000A31C80B29DB210FA83F38B42EDDC158054
:10A1200070BD13B513460022ADF806200DF10602EE
:10A130000446FFF7D5FF10B1BDF80630E01802B0B5
:10A1400010BD72DF704773DF704738B501220446D7
:10A150000D46B0F81414D0F81004FFF7E2FF00B178
:10A16000057004F13C0204F5826104F15400BDE87D
:10A170003840FFF7E6BF80F830107047F8B5044666
:10A180000F4600296DD000286BD091F87A301BB1B2
:10A1900091F89830002B66D14FF0000C84F802C083
:10A1A00007F178060FCE251D0FC50FCE0FC596E817
:10A1B000070085E8070084F830C0D7F8A43063634F
:10A1C000D7F8A830A3634FF6FF7504F58263C4F88F
:10A1D0002034A4F824540722614604F2264001F0FA
:10A1E000A9FC23780BB984F8545094F82430002B40
:10A1F00014BFEE231F2304F15501C4F81014A4F872
:10A20000143404F214423846FFF7A0FD40BB94F822
:10A210002430002B14BFEE231F2304F23121C4F895
:10A220001814A4F81C3404F21C4207F13C00FFF798
:10A230008DFDA8B9A369A4F848304FF480730125B7
:10A24000A4F8503063692064014684F83C5063648C
:10A2500004F13C0204F15400FFF773FF00B92570CC
:10A26000F8BD0E20FCE70720FAE7F8B507780446AA
:10A270000D46002F00F0098100F22646817007226A
:10A280000021304601F056FCE38813B1A378012B7E
:10A2900004D0E3794BB1A378022B06D1636BA3B151
:10A2A000012284F82D2408209847334604F22C41DB
:10A2B00013F8012F12B99942FAD117466B1E032BDE
:10A2C00057D8DFE803F0050B0F1284F82D34ECE7C4
:10A2D000A3791BB194F8243003B95FB9E3790BB1CA
:10A2E000002F48D1237A002B47D1637A002B0CBF73
:10A2F00000250425636BA570002B40D0033D012D84
:10A300003DD86279002A3AD094F82E24002A36D11A
:10A3100084F83024012284F82F240720984704F180
:10A320003C0518220021284601F004FCE26A0123C2
:10A33000511E994284F83C3001D9042A00D1D3B28D
:10A3400094F8242084F8513042B1A36A591E01299F
:10A3500002D9042B18BF012384F85230A1780023BE
:10A3600084F8503004291BD8DFE801F0770D22353E
:10A3700059000025BEE70225BCE70325BAE7002304
:10A3800084F82F34CBE7C4E91063C4F820340223E7
:10A39000012284F83C30802384F83120A4F848302E
:10A3A000A378002B5CD1636B002B6AD1002067E09F
:10A3B0000223002A84F8313014BF0723032384F8D2
:10A3C0003C302369A4F848300023C4F82034E36803
:10A3D00026646364E4E763696364A369A4F84830AE
:10A3E00012B1062384F83C306379B3B194F82E346B
:10A3F0009BB994F8303483B1022384F8503004219F
:10A400002046FFF7A2FE0028CAD1052384F8313088
:10A4100004F58263C4F82034C2E70323F6E7E36956
:10A420006364236AA4F8483012B1062384F83C30F0
:10A43000637983B194F82E346BB994F8303453B106
:10A44000022384F8503004212046FFF77EFE0028C6
:10A45000A6D10623DAE70423D8E784F831309FE752
:10A46000D4F820142A4604F15400FFF76AFE38B9E4
:10A4700094F8301094F85400FFF765FE002892D04D
:10A48000F8BD94F83100984790E70820F8E7038872
:10A49000112B10B50C460AD0262B1FD0102B05D13E
:10A4A000C37B012B02D18388A1F8243410BD002284
:10A4B000838881F82E24B1F824249A42F6D10B79AE
:10A4C000002BF3D101212046FFF7CFFE0028EDD06D
:10A4D000A36B002BEAD0BDE810401847037A013B7C
:10A4E000012BE3D8897805230131B1FBF3F303EBAA
:10A4F0008303C91AC9B2E6E775DF704776DF704794
:10A500007ADF70477BDF7047034B1A8882420CBFAB
:10A5100018460020704700BF28350020024B9B6979
:10A5200003B11847704700BF0C35002073B585B2E2
:10A530002846FFF7E9FF044670B1164E027A337BD6
:10A540009A420BD200F10A012846FFF7D5FFE8B185
:10A55000112801D0FFF7E2FF02B070BD00230372A3
:10A56000337C43B13B212846FFF7C8FF30F0080396
:10A5700001D0FFF7D3FF7369002BEDD000228DF8D7
:10A580000420ADF8065001A89847E5E7237A013387
:10A590002372E1E70C35002037B50B46497A0F4AA4
:10A5A00071B9D2E901141D7A0246002D18BF214667
:10A5B0005868FDF7F6FC08B1FFF7B0FF03B030BDF7
:10A5C000002119725369002BF8D00122ADF8060062
:10A5D0008DF8042001A89847F0E700BF0C35002053
:10A5E0004B8802889A4213D842889A4210D38088B6
:10A5F0008A8840F2F313984294BF031AC31A934215
:10A6000006D800F2F310904234BF002001207047BA
:10A61000002070470388122B70B5014659D004D82A
:10A62000102B1ED0112B44D070BD502BFCD12F4BC2
:10A63000C288DB899A42F7D1038A022BF4D186883B
:10A640003046FFF761FF05460028EDD001F112000A
:10A6500000F079F938BB6868FDF7BBFC0028E3D04F
:10A6600009E0C37B012BDFD14FF6FF70FFF74CFFF2
:10A67000054620B90420BDE87040FFF74FBF1C4AD3
:10A680008E880680002303721368C0F80A3053686E
:10A69000C0F80E3010310A30FFF7A2FF134B68727A
:10A6A000DB89002BC0D129463046BDE87040FFF75A
:10A6B00073BF8088FFF728FF04460028B4D04068A5
:10A6C000FDF787FC08B1FFF729FF4FF6FF732380E2
:10A6D000AAE786883046FFF717FF05460028A3D073
:10A6E00008310A30FFF77CFF6872DCE70C35002088
:10A6F0003C350020F8B5064648B305460FCD154F4A
:10A700003C460FC495E8070084E807003068124C07
:10A710003C60B0B1FFF7F4FEC0B932681368236043
:10A72000536863600D480E4A4FF6FF7303800D4B6C
:10A7300040F8043F0021FDF729FC002818BF032042
:10A7400004E02046FFF7DEFE0028EBD0F8BD0E2027
:10A75000FCE700BF0C3500203C35002028350020E8
:10A760002DA50200483500200AB1FEF73FB8FEF7DC
:10A7700046B873B50191019C06466CB100252C4684
:10A78000294601A8FEF745F818B106EB4403013449
:10A790009D800135142DF3D13046346002B070BD78
:10A7A0002DE9F04703888488103B8CB005460A2BBE
:10A7B0001FD8DFE803F0063F1E1E1E1E1E1E1E6071
:10A7C0004400314EB368DB43009371686846FDF77F
:10A7D00036FD009901A8FFF7CCFF0DF108094FF0F5
:10A7E0000008019B984507D3132C13D90420FDF7CB
:10A7F000D9FA0CB0BDE8F08739F802AB0027013771
:10A80000514606EB8700FDF7FAFF1E2FF7D108F13E
:10A810000108E6E71D482146FDF7E8FF1C482146F0
:10A82000FDF7E4FFEB7B012BE3D01A482146FDF74F
:10A83000DDFFDEE715482146FDF7E1FFD9E7027AA3
:10A8400015483F2A4FEA1215214694BF00220122E3
:10A85000FFF78AFF022D94BF002201220F482146F4
:10A86000FFF782FF012D0E4894BF002201222146EE
:10A87000FFF77AFFBDE7037A002BBAD1427A064888
:10A88000C2F3C0022146F3E768350020703500208E
:10A890006C35002074350020803500207C35002088
:10A8A000783500201328014602D80248FDF7B1BFD1
:10A8B000002070476C35002010B50446FFF7F2FF0A
:10A8C000002814BF2046142010BD70B5054616465A
:10A8D00008460AB90E2070BD00231360002DF9D080
:10A8E0002B68002BF6D0EB8813F003040ED1FFF792
:10A8F000E3FFC0B214280BD02B7983420AD9EB882E
:10A900002A6800FB032030602046E4E70720E2E7E6
:10A910000520E0E70420DEE7AADF704700230138C6
:10A920000B70042806D8DFE800F00306080A0C00C4
:10A9300011230B7070472123FBE73123F9E7122322
:10A94000F7E72223F5E7007800F001007047F0B543
:10A950008B7891B0012B0C4638BF01238DF80E3057
:10A9600005460B88ADF80C300021164668460322D8
:10A9700001F0E0F8607C6946FFF7D0FFA07C0DF1A4
:10A980000101FFF7CBFFE27B237B217D43EAC2037A
:10A99000227C43EA02139DF80220002922F01902CA
:10A9A00003F0190314BF02210121134361F3420391
:10A9B0001C22002109A88DF8023001F0BBF8637B4E
:10A9C00013F0300F15D002AF03220021384601F0FA
:10A9D000B1F8E07C0DF10901FFF7A0FF11238DF81C
:10A9E00008309DF80A300E97012262F342038DF879
:10A9F0000A30637B8DF824301422A37B8DF8253038
:10AA0000002104A801F096F803AB0493A388ADF8E5
:10AA10001C30A368CDF814D01BB1E288ADF8182023
:10AA20000893A369002B31D001AF032200213846DF
:10AA300001F080F8A3691A88ADF82C205A88ADF887
:10AA40002E205A680D97187B0A923946FFF766FF49
:10AA5000A3690DF10501587BFFF760FFA269917AA8
:10AA6000137A43EAC103D17A927B43EA01139DF83A
:10AA70000610002A03F0190321F0190114BF022265
:10AA800001220B4362F342038DF80630E36903B100
:10AA90000C93334604AA09A92846FFF73DFF11B0DD
:10AAA000F0BD90DF7047A5DF7047B5DF704700004D
:10AAB0007FB50023ADF80810ADF80A106A4602A968
:10AAC000064603930093ADF80430FFF7EAFF05460E
:10AAD00000B3124B124CE41AE408FDF77BFF240488
:10AAE00044F0010403460F4932462046FCF799FF23
:10AAF000BDF80020BDF8023052EA030103D00A4934
:10AB00002046FCF78EFFBDF804201AB10749204605
:10AB1000FCF77EFF284604B070BD00BF9CBC02005D
:10AB2000CCBC0200D9C3020023C4020062C40200EC
:10AB300080B14FF0F7130360FB230371F723C38049
:10AB40001723038141F6FB32002301614381828197
:10AB5000184670470E20704730B1A1F11703E02B63
:10AB600004D80180002070470E20704707207047EE
:10AB700013B5034680880C46B8B91A88242A00F019
:10AB8000968014D8112A71D0232A00F09E80102AB2
:10AB90003BD0A37A4BB1E1880020FFF784FF002867
:10ABA00040F099804FF48073638102B010BD3A2A5F
:10ABB00065D0552AEDD1DB88C988A072172B38BF24
:10ABC00017238B4228BF0B462381FFF76EFF60B12E
:10ABD000FDF700FF484B4949024649481B1ADB086C
:10ABE0001B0443F00100FCF713FFE37A002BD0D1E4
:10ABF0002369002BCDD040F6772200922289ADF850
:10AC00000420694620469847C3E7DB7B0A790A732C
:10AC1000012B13D0022B14D0E18823898B4205D25B
:10AC20000020FFF740FF70B90123E372217B637BB3
:10AC30008B42AED20020FFF73BFFAAE70B88E380F0
:10AC4000EAE74B88FBE7112802D10123A372EDE765
:10AC5000FDF7C0FE284B2B49024629481B1ADB088A
:10AC60001B0443F00100FCF7D3FEDFE7F723CB80A2
:10AC700017230B8141F6FB3348818B8189E75B8980
:10AC8000CA88934228BF1346172B0A6938BF172377
:10AC90000B814AB1C97A39B140F677210091ADF8FC
:10ACA00004306946204690470023638171E71A7A91
:10ACB0000B694A73002B3FF46CAF4DF67A218DF887
:10ACC000050000918DF804209BE7197A237B9942B7
:10ACD00028BF1946AFE711283FF467AFFDF77AFEAA
:10ACE000054B0849024606481B1ADB081B0443F0C3
:10ACF0000100FCF78DFE58E7CCBC0200E9C402005D
:10AD00009CBC0200B8C40200B0DF704766DF704729
:10AD100010B5002104464088FFF7F8FF034608B944
:10AD2000237210BD112801D10123F9E76368BDE842
:10AD30001040184760B159B10378DE2B0AD00B6878
:10AD40004360DE2303704FF6FF734380002070479B
:10AD50000E2070470820704728B10378DE2B04D1FD
:10AD60004180002070470E20704708207047F0B5E2
:10AD7000054685B00C46F1B1E8B10B78DE2B1AD14F
:10AD800082884B889A4204D10B7A13B10846FFF7A8
:10AD9000BFFF2B88112B32D0512B0ED0012B0AD1A3
:10ADA0002B7A012B07D1A9886288914203D12372A3
:10ADB0002046FFF7ADFF05B0F0BDAE886388B34213
:10ADC000F9D1AF79022FF6D1AD7B2B1F022BF2D830
:10ADD00000211022684600F0ADFE052D14BF4FF48F
:10ADE000C0730023694630468DF80070ADF804301A
:10ADF000FFF78AFF0028DED063689847DBE76388A7
:10AE0000AA889A4204BF4FF6FF736380D3E7A8DF96
:10AE10007047ADDF704762DF704770B505468AB096
:10AE20000C46002962D0002860D00388502B37D010
:10AE3000572B72D0102B59D181886069002601AA46
:10AE40000196FFF742FD082231460DEB020000F0AB
:10AE500071FE02232189A888CDF80CD002AA0293A2
:10AE6000FFF7D7FF002841D1A369002B3ED00398FC
:10AE7000FFF769FD002839D0019B0BB101221A7040
:10AE80001822002104A800F055FE02238DF810308E
:10AE9000AB88ADF81830019B05940793A36923E0B4
:10AEA0008188606902AAFFF710FD1822002104A81A
:10AEB00000F040FEAB882189ADF81830EB88029A8B
:10AEC00005949942079218D12E8A022E15D16AB1A3
:10AED00005F11200FFF737FD029B48B101221A70FD
:10AEE0008DF81060A3690BB104A898470AB070BD33
:10AEF000187003238DF81030F4E7A2899A42F5D137
:10AF0000A369002BF2D000228DF8102005F1120267
:10AF100008922A8AADF82420E6E78188606902AAAF
:10AF2000FFF7D3FC01460028E0D1029B1B78002BE1
:10AF3000DCD0182204A800F0FDFD01238DF81030AC
:10AF4000AB88ADF818300594029BA6E7F0B53A4BF4
:10AF50008FB002AD04460A4603F1100C2F46186864
:10AF600059682E4603C6083363453546F7D1002C91
:10AF70005FD0002A5DD01368A36121463846FFF7F1
:10AF80004AFF002853D12246012512F8023B8DF8D2
:10AF9000063001A92846ADF80450FFF738FF002815
:10AFA00045D10146202206A800F0C4FD2246022316
:10AFB000ADF8183012F80C3B8DF81A30BDF824307B
:10AFC0001E4E6088079623F44F6323F00F0343F46B
:10AFD00040632B4306A9ADF824308DF829508DF835
:10AFE0002A50FFF7B4FC10BB0146202206A800F04F
:10AFF000A1FD22460323ADF8183012F8043B8DF86A
:10B000001A30BDF824306088079623F4875323F064
:10B010001F0343F480532B43ADF8243006A940F2BC
:10B0200001138DF82950ADF82A30FFF790FC0FB0CE
:10B03000F0BD0E20FBE700BF2DC50200F4000100AB
:10B0400010DF704713B5044609496846FEF7DAF881
:10B05000019808B902B010BDD0E900212046904700
:10B0600018B16846FEF7D8F8F2E71120F2E700BF02
:10B070004CC5020013B5044607496846FEF7C2F8FE
:10B08000019B0BB902B010BD2046D3E900219047C7
:10B090006846FEF7C1F8F3E764C502000B4991F872
:10B0A00016335A09EC231341DB0706D5084B9A687F
:10B0B0003AB94FF480030B60704742F20200FCF78C
:10B0C00071BE1A6842F480021A60704700E100E025
:10B0D00094310020F7B5194F3C7864BB184E012518
:10B0E00020463570FFF7AEFF112821D02046FFF72C
:10B0F000C1FF144B8DF80340186801900DF1030057
:10B10000FDF740F8104901A8FFF79AFF0446B0FA8E
:10B1100080F0400938709DF80300FDF757F83CB9FE
:10B120000A4B34701C70FFF7B9FF2846FFF7A2FFE7
:10B13000204603B0F0BD0824FAE700BFE535002043
:10B14000E435002045C50200C17D0200E63500203F
:10B1500007B508496846FEF755F8019B13B903B0D7
:10B160005DF804FBD3E9002090476846FEF754F8E9
:10B17000F3E700BF58C50200FFF7EABF60DF704782
:10B1800069DF704761DF704730B5114DADF5017D66
:10B190004FF4FA740DF1020103A8ADF80240FFF775
:10B1A000F1FF70B9294601A8FEF72CF8029B002B8D
:10B1B000F0D003A8D3E90021904701A8FEF72CF8AE
:10B1C000F4E7052801D0FCF7EDFD0DF5017D30BD5C
:10B1D000ECC70200024B1B780BB1FFF7D5BF7047DD
:10B1E000E735002030B5054685B00C46002900F053
:10B1F000B5805B4B0B600C22002101A800F09AFC8B
:10B2000001238DF8063022688DF80450062301A929
:10B210002020ADF80830FFF7B3FF60B1FDF7DAFB8F
:10B22000504B5149024651481B1ADB081B0443F09E
:10B230000100FCF7EDFB0C22002101A800F07AFCD4
:10B2400001238DF805302268002301A94020ADF8C4
:10B250000630FFF795FF60B1FDF7BCFB414B444959
:10B26000024642481B1ADB081B0443F00100FCF7AE
:10B27000CFFB0C22002101A800F05CFCF723226820
:10B280008DF8045001A92320ADF80630FFF778FFB0
:10B2900060B1FDF79FFB334B3649024633481B1A1A
:10B2A000DB081B0443F00100FCF7B2FB0C22002179
:10B2B00001A800F03FFC012022688DF8040001A9DC
:10B2C000FFF75EFF60B1FDF785FB264B2A4902467A
:10B2D00026481B1ADB081B0443F00100FCF798FB0F
:10B2E0000C22002101A800F025FC4FF4B063226875
:10B2F000019301A9A120FFF743FF60B1FDF76AFBAD
:10B30000184B1E49024619481B1ADB081B0443F060
:10B310000100FCF77DFB0C22002101A800F00AFCD3
:10B320009DF8043022686FF3000301A9A0208DF876
:10B330000430FFF725FF034668B1FDF74BFB094BCF
:10B340000F49024609481B1ADB081B0443F00100A1
:10B35000FCF75EFB0023184605B030BD0E23FAE76C
:10B36000E82A0020DCBC020070C502009CBC020080
:10B37000B6C5020002C6020049C6020095C6020018
:10B38000E6C6020073B505460668FFF7F7FE2B68B0
:10B39000B34204461DD91A481A4B1B491B1ADB0835
:10B3A0001B0443F002000190FCF72EFB2B681749A9
:10B3B00001983246FCF735FB4FF080532A68D3F8EA
:10B3C0000C31134901989B0203F100539A1AFCF7C0
:10B3D0001FFB2CB90F4B01221A70204602B070BD22
:10B3E0002046FDF7F7FA074B0B49024604481B1AA3
:10B3F000DB081B0443F00100FCF70AFBEDE700BF8C
:10B400009CBC0200DCBC020039C7020068C7020015
:10B4100099C70200E7350020C3C702004BDF704721
:10B420001FB50D4C01A8FFF7F9FF70B9214602A81E
:10B43000FDF7E8FE039B002BF4D00198D3E900212F
:10B44000904702A8FDF7E8FEF4E7052801D0FCF7D5
:10B45000A9FC04B010BD00BF04C8020033DF704770
:10B4600076DF70477ADF70477CDF70477FDF704799
:10B470008FDF7047B1DF70477047000013B5114B85
:10B480004A88044610481B1ADB081B0443F00300DB
:10B490000E4B1B889A420DD10A8840F677239A42B8
:10B4A00008D18B880A490190033B9BB21A46FCF7EE
:10B4B000B8FA019823886288064902B0BDE81040B6
:10B4C000FCF7AFBAB4BC02009CBC0200FC2A00200E
:10B4D00010C802002CC80200FCF764BC08B530B9E3
:10B4E000FFF7BCFF18B1BDE80840FCF75BBC08BD26
:10B4F0000388212B13B5044637D007D8112B25D04C
:10B50000132B44D0102B0CD002B010BD522B46D0C0
:10B51000562B01D03B2BF7D1A0881321FFF7A0FFBA
:10B520000FE0234B23482449C01AC008000440F010
:10B530000300FCF769FA214BA18821481980FFF725
:10B540000BFC0028E0D0FCF72DFCDDE7184B194878
:10B550001C49C01AC008000440F00300FCF754FA6C
:10B56000164B4FF6FF721A80CEE7114B1148164961
:10B57000C01AC008000440F00300FCF745FA00239D
:10B58000A088ADF8043001A9FFF772FFD9E70B4896
:10B5900000231A4685210088FFF768FFD1E7074896
:10B5A00000231A4619460088FFF764FFC9E700BF69
:10B5B0009CBC0200B4BC020065C80200FC2A00204A
:10B5C000583A00206FC802007CC8020013B50E4B29
:10B5D0000E4904460E4822781B1ADB081B0443F070
:10B5E00003000190FCF714FA2378019853B9094934
:10B5F000FCF70AFAA28A2169019802B0BDE810405E
:10B60000FCF71ABA02B010BDB4BC020090C8020028
:10B610009CBC02009EC8020008B503784BB9054BDC
:10B620003B211888FFF71CFF18B1BDE80840FCF764
:10B63000B9BB08BDFC2A0020FCF7B4BB08B508491B
:10B640000848FFF775FA08B1FCF7ACFB0548F7218D
:10B65000FFF782FA18B1BDE80840FCF7A3BB08BDAC
:10B660007DB402001C3A00202DE9F0414FF48041E6
:10B67000ACB00020FCF712F808B1FCF793FBFBF725
:10B6800043FFFCF751FC08B1FCF78CFBFDF7F6FD1E
:10B6900008B1FCF787FBFFF71DFD08B1FCF782FB43
:10B6A000002301A901200193FFF79CFD08B1FCF7DD
:10B6B00079FB01A8FFF766FE08B1FCF773FB1123C5
:10B6C00054488DF8003000F08AFA524982B2684638
:10B6D000FFF7CAFE08B1FCF765FB0021082201A8AC
:10B6E00000F028FA4C494FF0C87301A8CDE90113C6
:10B6F000FFF7B8FE08B1FCF755FBFFF79FFF474B7C
:10B70000474800936946FFF715FB08B1FCF74AFB71
:10B71000042200210DEB020000F00CFA414B4248DC
:10B72000019301A9FFF712FC08B1FCF73BFBAC2227
:10B73000002101A800F0FEF902238DF804304FF437
:10B74000A0633A4AADF806300123ADF850301592A7
:10B750008DF88030402244F25063CDE923233448F1
:10B76000344B2A9301A9FEF709FD08B1FCF71AFB37
:10B770002F480121FEF7FFFC1C22002101A800F048
:10B78000D9F900234FF4A032CDE90132ADF81230DF
:10B790004FF4F0228DF81430274B039206930322C6
:10B7A000264B8DF8102001A80793FEF7A3FF08B1E0
:10B7B000FCF7F8FA224D0FCD01AC0FC42B68214ADB
:10B7C0002148236001A9FDF73FFA08B1FCF7EAFA26
:10B7D0001D481E4E1C4FFDF79BFB6FF0010846F005
:10B7E00001060024312C8ABF08FB04F26200C83233
:10B7F00095B22A4600213846FDF71CFA1128F8D0E8
:10B800000A254FF47A40B047013DFAD10134642C47
:10B81000E8D1E6E7D2C8020010003C00D9B402002B
:10B82000583A0020CDB50200002B0020F82A002055
:10B83000E8350020DDB4020019B6020039B6020076
:10B84000E0C8020079B40200F4C8020000C9020096
:10B85000054B1B68082B01BF044B1868B0FA80F039
:10B86000400918BF0020704730010010340100105B
:10B8700008B54FF080430022C3F80C21C3F8102113
:10B88000C3F838254FF0805203F54043D2F8041432
:10B89000C3F82015D2F80814C3F82415D2F80C14F4
:10B8A000C3F82815D2F81014C3F82C15D2F81414C4
:10B8B000C3F83015D2F81814C3F83415D2F81C1494
:10B8C000C3F84015D2F82014C3F84415D2F8241454
:10B8D000C3F84815D2F82814C3F84C15D2F82C1424
:10B8E000C3F85015D2F83014C3F85415D2F83414F4
:10B8F000C3F86015D2F83814C3F86415D2F83C14B4
:10B90000C3F86815D2F84014C3F86C15D2F8442473
:10B91000C3F87025FFF79CFF10B1384B384A1A6006
:10B92000FFF796FF18B1374BFB22C3F81825FFF736
:10B930008FFF48B13449354B0A681B6822F00F026B
:10B9400003F00F0313430B60FFF782FF18B1304B76
:10B950004FF400721A604FF08043D3F80024D207EE
:10B9600044BF6FF00102C3F800242A4AD2F888309D
:10B9700043F47003C2F88830BFF34F8FBFF36F8F6B
:10B980004FF01023D3F80022002A03DBD3F804324F
:10B99000002B2FDA204B0122C3F80425D3F8002412
:10B9A000002AFBD04FF010221221C2F80012D3F867
:10B9B0000024002AFBD04FF010231222C3F80422E7
:10B9C000154B1A46D3F800140029FBD00021C3F808
:10B9D0000415D2F80034002BFBD0BFF34F8F0D4974
:10B9E0000E4BCA6802F4E0621343CB60BFF34F8F83
:10B9F00000BFFDE70A4B0B4A1A6008BD8C56004099
:10BA00004881030000F00040E40E0040580200109E
:10BA10004096024000ED00E000E001400400FA051D
:10BA2000242B00200090D0037F2805D8034B185CFE
:10BA3000034B5B5C18407047002070471CC9020034
:10BA40009CC90200A0F16103192B98BF20387047F0
:10BA5000A0F14103192B98BF203070477F2805D8EB
:10BA6000034B185C034B5B5C184070470020704729
:10BA70001CC902009CC90200A0F16103192B98BFE8
:10BA800020387047A0F14103192B98BF2030704730
:10BA90007F299ABF017001206FF02E0070475AB1C4
:10BAA0000A787F2A0AD800B1026000211960596023
:10BAB000501A18BF01207047002070476FF02E0009
:10BAC0007047000008B5034B5B689B681B6898478C
:10BAD00008BD00BF282B002008B50921FFF7F2FFA1
:10BAE00008BD844640EA010313F0030F18D18446D1
:10BAF000202A0BD32DE9F007B1E8F807A0E8F807F2
:10BB0000A2F12002202AF7D2BDE8F007042A07D3C9
:10BB100051F8043B40F8043BA2F10402042AF7D296
:10BB2000002A05D011F8013B00F8013B013AF9D198
:10BB3000604670478446002A2DD010F0030F04D0D1
:10BB400000F8011B013A26D0F7E7C9B241EA01210A
:10BB500041EA0141202A12D3A2F120022DE9F0038B
:10BB60000B460C460D460E460F4688468946A0E811
:10BB7000FA03203AFBD2BDE8F00320320BD0042AAE
:10BB800005D340F8041B043A05D0042AF9D200F882
:10BB9000011B013AFBD160467047024610F0030FCB
:10BBA00016D111F0030F13D12DE9F0004FF001373A
:10BBB0004FF0803351F8044BA4EB070525EA040548
:10BBC0001D4002D142F8044BF4E7A1F10401F0BC9E
:10BBD00011F8013B02F8013B002BF9D1704700F14D
:10BBE000010110F0030F11D010F8012B002A23D00F
:10BBF00010F0030F0AD010F8012B002A1CD010F00F
:10BC0000030F03D010F8012B002A15D02DE9700086
:10BC10004FF001324FF0803350F8044BA4EB020593
:10BC200025EA04051D4000D1F6E7A0F1040070BC30
:0EBC300010F8012B002AFBD1A0EB0100704799
:10BC4000A1A702000000000015A6020000000000ED
:10BC50008FA40200E835002071AB02001C3A0020DE
:10BC60006FAD0200583A00201BAE0200002B0020EE
:08BC7000F1B402000000000025
:10BC7800D5B102000000000021B40200000000005D
:10BC8800802B0020482C0020502C0020882B0020DE
:04BC98001800000090
:10BC9C00B4C3020000000000BBC30200000000009F
:10BCAC00BFC302000000000045BD020000000303FA
:10BCBC0035BE02000000000025C502000000000097
:10BCCC0018C50200000003033DC502000000030379
:10BCDC00E0C7020000000303F8C7020000000303E2
:10BCEC009FC302000000000096C302000000000089
:10BCFC0018BD02000000000024BD0200E82A00204C
:10BD0C00000000000338FDD870470000D573020016
:10BD1C0041740200D17302007274745F6C6F675FC0
:10BD2C006261636B656E64004261636B656E647324
:10BD3C0020666C75736865640061707000000000AB
:10BD4C00743000207F000000F43000201B5B306D4D
:10BD5C00002573001B5B313B33316D0025734C6F39
:10BD6C0067732064726F70706564202825642925C0
:10BD7C00730D0A003C25733E2025733A20002025C4
:10BD8C0030327800202020007C002563001B5B31C2
:10BD9C003B33306D001B5B313B33326D001B5B3131
:10BDAC003B33336D001B5B313B33346D001B5B311C
:10BDBC003B33356D001B5B313B33366D001B5B3108
:10BDCC003B33376D007761726E696E6700696E6622
:10BDDC006F0064656275670058BD020099BD020072
:10BDEC0060BD0200A1BD0200A9BD0200B1BD0200F0
:10BDFC00B9BD0200C1BD0200C9BD020000000000B7
:10BE0C0022BE0200D1BD0200D9BD0200DEBD02007F
:10BE1C00466174616C206572726F72005379737431
:10BE2C00656D207265736574006170705F74696D07
:10BE3C006572000001000600000000000C310020BB
:10BE4C00317E0200303132333435363738394142A5
:10BE5C00434445464E52465F535543434553530066
:10BE6C004E52465F4552524F525F5356435F4841C4
:10BE7C004E444C45525F4D495353494E47004E5228
:10BE8C00465F4552524F525F534F465444455649B4
:10BE9C0043455F4E4F545F454E41424C4544004E26
:10BEAC0052465F4552524F525F494E5445524E4195
:10BEBC004C004E52465F4552524F525F4E4F5F4DB3
:10BECC00454D004E52465F4552524F525F4E4F54B5
:10BEDC005F464F554E44004E52465F4552524F52AC
:10BEEC005F4E4F545F535550504F52544544004E83
:10BEFC0052465F4552524F525F494E56414C49444F
:10BF0C005F504152414D004E52465F4552524F5286
:10BF1C005F494E56414C49445F5354415445004E81
:10BF2C0052465F4552524F525F494E56414C49441E
:10BF3C005F4C454E475448004E52465F4552524F57
:10BF4C00525F494E56414C49445F464C4147530061
:10BF5C004E52465F4552524F525F494E56414C49E4
:10BF6C00445F44415441004E52465F4552524F5239
:10BF7C005F444154415F53495A45004E52465F4518
:10BF8C0052524F525F54494D454F5554004E5246F4
:10BF9C005F4552524F525F4E554C4C004E52465FCD
:10BFAC004552524F525F464F5242494444454E000F
:10BFBC004E52465F4552524F525F494E56414C4984
:10BFCC00445F41444452004E52465F4552524F52D8
:10BFDC005F42555359004E52465F4552524F525F85
:10BFEC00434F4E4E5F434F554E54004E52465F45A5
:10BFFC0052524F525F5245534F5552434553004E88
:10C00C0052465F4552524F525F4D4F44554C455F1F
:10C01C004E4F545F494E495449414C495A4544008E
:10C02C004E52465F4552524F525F4D555445585FE4
:10C03C00494E49545F4641494C4544004E52465F77
:10C04C004552524F525F4D555445585F4C4F434BE0
:10C05C005F4641494C4544004E52465F4552524F53
:10C06C00525F4D555445585F554E4C4F434B5F46B0
:10C07C0041494C4544004E52465F4552524F525F27
:10C08C004D555445585F434F4E445F494E49545F9C
:10C09C004641494C4544004E52465F4552524F5220
:10C0AC005F4D4F44554C455F414C52454144595F9F
:10C0BC00494E495449414C495A4544004E52465FF9
:10C0CC004552524F525F53544F524147455F46556C
:10C0DC004C4C004E52465F4552524F525F415049B4
:10C0EC005F4E4F545F494D504C454D454E54454461
:10C0FC00004E52465F4552524F525F464541545591
:10C10C0052455F4E4F545F454E41424C4544004EA4
:10C11C0052465F4552524F525F494F5F50454E4415
:10C12C00494E47004E52465F4552524F525F445261
:10C13C00565F5457495F4552525F4F5645525255C0
:10C14C004E004E52465F4552524F525F4452565F1C
:10C15C005457495F4552525F414E41434B004E523A
:10C16C00465F4552524F525F4452565F5457495F97
:10C17C004552525F444E41434B004E52465F45522E
:10C18C00524F525F424C455F495053505F52585F7B
:10C19C00504B545F5452554E4341544544004E52FB
:10C1AC00465F4552524F525F424C455F4950535087
:10C1BC005F4348414E4E454C5F414C5245414459BA
:10C1CC005F455849535453004E52465F4552524FA7
:10C1DC00525F424C455F495053505F4C494E4B5F48
:10C1EC00444953434F4E4E4543544544004E5246EA
:10C1FC005F4552524F525F424C455F495053505F1E
:10C20C00504545525F52454A454354454400556E8E
:10C21C006B6E6F776E206572726F7220636F6465E0
:10C22C00000000000000000060BE020001000000E1
:10C23C006CBE0200020000008ABE02000300000077
:10C24C00ABBE020004000000BEBE020005000000F0
:10C25C00CFBE020006000000E3BE02000700000093
:10C26C00FBBE02000800000013BF02000900000022
:10C27C002BBF02000A00000044BF02000B000000AC
:10C28C005CBF02000C00000073BF02000D00000038
:10C29C0087BF02000E00000099BF02000F000000D3
:10C2AC00A8BF020010000000BCBF0200110000007B
:10C2BC00D3BF020012000000E2BF02001300000016
:10C2CC00F7BF0200800000000BC0020081000000DC
:10C2DC002CC002008200000048C002008300000055
:10C2EC0064C002008400000082C0020085000000CF
:10C2FC00A3C0020086000000C8C00200900000002D
:10C30C00DFC0020091000000FDC00200920000009E
:10C31C001BC102000082000030C10200018200003B
:10C32C004EC10200028200006AC1020000840000BB
:10C33C0086C1020001840000AAC102000284000030
:10C34C00D4C1020003840000F9C1020052544320FE
:10C35C00696E7374616E636520616C72656164797A
:10C36C0020696E697469616C697A65642E00525437
:10C37C00433A20696E697469616C697A65642E0050
:10C38C00000000000338FDD87047736F72746C693D
:10C39C007374007077725F6D676D740078BC020007
:10C3AC0078BC0200040000004750494F544500502F
:10C3BC0050490054494D4552005465726D696E6187
:10C3CC006C00525454005345474745520073645F08
:10C3DC00626C655F6761705F646174615F6C656EF0
:10C3EC006774685F757064617465282920287265AC
:10C3FC00717565737429206F6E20636F6E6E656343
:10C40C0074696F6E20307825782072657475726E41
:10C41C0065642025732E00546865207265717565FE
:10C42C00737465642054582F5258207061636B6587
:10C43C0074206C656E67746820697320746F6F204C
:10C44C006C6F6E672062792025752F2575206F63C0
:10C45C00746574732E00546865207265717565730C
:10C46C0074656420636F6D62696E6174696F6E20B0
:10C47C006F6620545820616E64205258207061639E
:10C48C006B6574206C656E677468732069732074B7
:10C49C006F6F206C6F6E67206279202575206D6937
:10C4AC0063726F7365636F6E64732E0073645F6287
:10C4BC006C655F67617474635F65786368616E67F0
:10C4CC00655F6D74755F726571756573742829206D
:10C4DC0072657475726E65642025732E0073645FCB
:10C4EC00626C655F67617474735F65786368616EB5
:10C4FC0067655F6D74755F7265706C792829207241
:10C50C00657475726E65642025732E006E72665F9D
:10C51C00626C655F6761747400626C655F6E7573E5
:10C52C00009ECADC240EE5A9E093F3A3B5000040FD
:10C53C006E6E72665F736468000100000700000095
:10C54C0088BC020088BC02000800000078BC020015
:10C55C0088BC02000800000078BC020078BC020015
:10C56C000800000073645F626C655F6366675F73ED
:10C57C00657428292072657475726E656420257344
:10C58C00207768656E20617474656D7074696E6770
:10C59C0020746F2073657420424C455F434F4E4EA0
:10C5AC005F4346475F4741502E0073645F626C6582
:10C5BC005F6366675F736574282920726574757292
:10C5CC006E6564202573207768656E2061747465D0
:10C5DC006D7074696E6720746F2073657420424CA3
:10C5EC00455F4741505F4346475F524F4C455F4361
:10C5FC004F554E542E0073645F626C655F636667C3
:10C60C005F73657428292072657475726E65642079
:10C61C002573207768656E20617474656D7074691C
:10C62C006E6720746F2073657420424C455F434FD6
:10C63C004E4E5F4346475F474154542E0073645F30
:10C64C00626C655F6366675F736574282920726529
:10C65C007475726E6564202573207768656E206131
:10C66C007474656D7074696E6720746F2073657473
:10C67C0020424C455F434F4D4D4F4E5F4346475F05
:10C68C0056535F555549442E0073645F626C655F69
:10C69C006366675F73657428292072657475726EA2
:10C6AC006564202573207768656E20617474656DF0
:10C6BC007074696E6720746F2073657420424C45EA
:10C6CC005F47415454535F4346475F415454525F54
:10C6DC005441425F53495A452E0073645F626C6546
:10C6EC005F6366675F736574282920726574757261
:10C6FC006E6564202573207768656E20617474659F
:10C70C006D7074696E6720746F2073657420424C71
:10C71C00455F47415454535F4346475F5345525618
:10C72C004943455F4348414E4745442E00496E738B
:10C73C00756666696369656E742052414D20616C43
:10C74C006C6F636174656420666F72207468652019
:10C75C00536F66744465766963652E004368616E39
:10C76C006765207468652052414D20737461727442
:10C77C00206C6F636174696F6E2066726F6D203010
:10C78C0078257820746F20307825782E004D6178CC
:10C79C00696D756D2052414D2073697A6520666F05
:10C7AC0072206170706C69636174696F6E2069735B
:10C7BC0020307825782E0073645F626C655F656E3F
:10C7CC0061626C6528292072657475726E656420CF
:10C7DC0025732E006E72665F7364685F626C650011
:10C7EC0040BC020078BC0200080000006E72665F5C
:10C7FC007364685F736F630040BC020040BC02004E
:10C80C000800000044617461206C656E206973201F
:10C81C0073657420746F203078255828256429009E
:10C82C00415454204D54552065786368616E67659A
:10C83C0020636F6D706C657465642E2063656E7417
:10C84C0072616C203078257820706572697068652B
:10C85C0072616C203078257800436F6E6E6563745E
:10C86C00656400446973636F6E6E65637465640020
:10C87C0050485920757064617465207265717565D6
:10C88C0073742E004E5553206576656E743A2025D0
:10C89C006400526563656976656420646174612027
:10C8AC0066726F6D20424C45204E55532E205365B9
:10C8BC007474696E672050574D20647574792063C9
:10C8CC0079636C652E0050574D5F426C696E6B79C5
:10C8DC00000000000D000000FFFFFFFF0000000043
:10C8EC0001000000C8000000343A002008C9020012
:10C8FC00000000000338FDD8704700000090004095
:10C90C000104000043000000504F53495800000040
:10C91C0020202020202020202068282828282020A3
:10C92C0020202020202020202020202020202020FB
:10C93C0048101010101010101010101010101010B3
:10C94C008484848484848484848410101010101053
:10C95C0010818181818181010101010101010101AC
:10C96C000101010101010101010101101010101060
:10C97C00108282828282820202020202020202027D
:10C98C000202020202020202020202101010102025
:10C99C000007032004170201085710408000000014
:10C9AC0010C9020014CA020028CB020053756E0095
:10C9BC004D6F6E00547565005765640054687500C2
:10C9CC004672690053617400000000004A616E00F9
:10C9DC00466562004D617200417072004D617900D4
:10C9EC004A756E004A756C0041756700536570009E
:10C9FC004F6374004E6F76004465630000000000C6
:10CA0C00414D00504D0000004CCB020048CB0200C1
:10CA1C0048CB020048CB020048CB020048CB0200B6
:10CA2C0048CB020048CB020048CB020048CB0200A6
:10CA3C00FFFFFFFFFFFFFFFFFFFFFFFFFFFF0000F8
:10CA4C0088CA0200B8C90200C4CA0200D8C90200D0
:10CA5C000CCA02006CCA02001CCB020078CA02008D
:10CA6C00256D2F25642F25790000000025612025D8
:10CA7C0062202565202554202559000053756E64CD
:10CA8C006179004D6F6E64617900547565736461F2
:10CA9C0079005765646E65736461790054687572CA
:10CAAC0073646179004672696461790053617475CD
:10CABC0072646179000000004A616E7561727900E0
:10CACC004665627275617279004D617263680041EE
