:1000000000000420750300005D0300005F03000092
:1000100061030000630300006503000000000000AE
:100020000000000000000000000000006703000066
:1000300069030000000000006B0300006D03000076
:100040006F0300006F0300006F0300006F030000E8
:100050006F0300006F030000D50C00006F03000069
:10006000D1110000E11100006F0300006F030000D8
:100070006F0300006F0300006F0300006F030000B8
:100080006F0300006F0300006F0300006F030000A8
:100090006F0300006F0300006F0300006F03000098
:1000A0006F0300006F0300006F0300006F03000088
:1000B0006F0300006F03000000000000000000005C
:1000C0006F0300006F0300006F0300006F03000068
:1000D0006F0300006F0300006F0300006F03000058
:1000E0006F0300006F0300006F03000000000000BA
:1000F000000000006F030000000000006F0300001C
:1001000000000000000000000000000000000000EF
:1001100000000000000000000000000000000000DF
:1001200000000000000000000000000000000000CF
:1001300000000000000000000000000000000000BF
:1001400000000000000000000000000000000000AF
:10015000000000000000000000000000000000009F
:10016000000000000000000000000000000000008F
:10017000000000000000000000000000000000007F
:10018000000000000000000000000000000000006F
:10019000000000000000000000000000000000005F
:1001A000000000000000000000000000000000004F
:1001B000000000000000000000000000000000003F
:1001C000000000000000000000000000000000002F
:1001D000000000000000000000000000000000001F
:1001E000000000000000000000000000000000000F
:1001F00000000000000000000000000000000000FF
:10020000354936480A1A02D0072291438D463449AF
:1002100034480A1A06D00722914381F30988022242
:1002200082F3148830483149314A00F044F83148AB
:100230003149324A00F03FF831483249324A00F041
:100240003AF832483249334A00F035F832483349F7
:10025000334A00F030F833483349344A00F02BF881
:1002600033483449344A00F026F8344834490022EF
:1002700000F02CF833483449002200F027F83348C6
:100280003349091A082902DB002202604160314A21
:1002900090471F481F49884205D00268043003B4C4
:1002A000904703BCF7E700208646EC46002000217B
:1002B000294A9047FEE7884207D0521A05D00378B2
:1002C00001300B700131013AF9D17047884202D0F8
:1002D00002700130FAE770470000042000E00320BC
:1002E0000000042000000420E014000000000020B2
:1002F00004000020D0030000D0030000AA14000076
:10030000E01400000000002000000020AC140000F9
:10031000AC140000AC140000AC140000AC140000DD
:10032000AC140000AC140000AC140000E014000099
:10033000E414000004000020040000200400002059
:10034000E0000020E0000020E0000020E0000020AD
:10035000E02000209D030000F5110000FEE7FEE70D
:10036000FEE7FEE7FEE7FEE7FEE7FEE7FEE7FEE765
:1003700000F002B8FFF7FCBF0F484FF007018843B9
:1003800085460E4880470E48016841F470010160BF
:10039000BFF34F8FBFF36F8FFFF732BF09480A4992
:1003A0000A4A884207D0521A05D0037801300B70F0
:1003B0000131013AF9D17047000004208D1200008C
:1003C00088ED00E0AC1400000000002000000020D8
:1003D0001FB50021039001AA44F20100CDE90111EB
:1003E00000F004F805B05DF804FB000072B6094B9C
:1003F0001B68DB0700D500BEBFF34F8F0649074BD4
:10040000CA6802F4E0621343CB60BFF34F8F00BFB2
:10041000FDE700BFF0ED00E000ED00E00400FA05AC
:1004200072B6024A1368013313607047040000205B
:10043000034A1368013B136003B962B6704700BFFB
:1004400004000020FFF7ECBFFFF7F2BF2DE9F843EF
:100450000468054694F8200000F036FD04F1180702
:10046000FF264FF0FF394FF00008207AFF2802D016
:1004700000F02AFD2672607AFF2802D000F024FDE9
:1004800066722068431C03D000F0A8FBC4F80090FB
:1004900084F80B800C34BC42E7D16868BDE8F843AF
:1004A00000F024BE2DE9F041134EDFF850800C46D9
:1004B0000025012706EB4106735D5BB1735D013BCF
:1004C000DBB27355735D93B958F824301B6820462E
:1004D000DB6998474DB167B1084B53F824300221CE
:1004E000BDE8F041586800F06ABE0125E4E7002746
:1004F000F0E7BDE8F08100BF2100002008000020E7
:1005000010B540680B4902798C5CFF2CE3B20DD02A
:10051000FE2B0DD0006803F5A87350F82330064871
:1005200050F82200984203D1FF238B54002010BDC5
:100530000120FCE71C0000202C0000202DE9F74FD3
:100540000368904693F82120022A04460F4640F0A3
:1005500099800C254D435A195268904509D1DB69A1
:100560001BB9002003B0BDE8F08F426810799847AE
:10057000F7E7FFF7C5FF8346002840F085806368F2
:10058000DFF810A11B79FE220AF80320266896F8EE
:10059000200000F0EDFCD146B8F1000F1FD135442A
:1005A000687A00F0E5FC287A00F0CCFC63681B79DF
:1005B000FF220AF803200C2303FB07662368C6F812
:1005C0000480DB69002BCCD063681A792F4B03EBD6
:1005D00042030221D955606800F0DEFDC1E7B16930
:1005E000884507D335441FFA81F8287A00F0C0FC0B
:1005F000687AD9E707EB47034FEA830A06EB8303E0
:1006000060685A68914238D0002A36D0904534D27A
:100610005B46032100F092FD636896F820B01968EC
:1006200056F80A00354401F5A671AB7A01910BB377
:1006300000F02AFB02460199584600F063FC96F848
:10064000200000F07FFC6368114A1B7909F80370F1
:1006500042F823800C2505FB0765606800234246AD
:10066000394600F06BFD287A00F06CFC687A00F0E7
:1006700069FCA0E700F0FAFADCE70379FF2209F849
:100680000320E7E708206DE711206BE72100002039
:100690002C0000201C00002003681B8B5A4364239D
:1006A000B2FBF3F292B2FFF749BF00002DE9F04F21
:1006B0002DED028B89B0044602928A46002900F093
:1006C0004681056895F82130002B40F0428100F00A
:1006D0008BF908B1852845D100F006FA002838D0FA
:1006E0009D4B9E4E1B6803F0F003303B18BF012367
:1006F0003370FF2385F820304FF6FF7300222B81E3
:100700004FF0FF33EA722B60EA75AB82EB6005F1C4
:10071000200000F0ABFB0396074600BB0AF108037C
:10072000804604935FFA88F308EE103A5AF82830AE
:100730005A1C00F09D80266896F82110B9B1082651
:100740002046FFF783FE304609B0BDEC028BBDE8C2
:10075000F08F00F091F90028C2D00326F3E720467D
:10076000FFF774FE0426EEE74FF00108DAE7049A7B
:1007700005934FF00C0909FB08F912F808B006EBD5
:1007800009021846516082F80AB003228DF8182039
:10079000BBFA8BF252098DF8192006A901228DF8B7
:1007A0001A2000F0ABF9E0B9059B46F809300122A8
:1007B000BBF1000F00F0B5801F2B86BF684903F026
:1007C0001F034FF0A0419A40C1F80C250C2303FBF6
:1007D00008F303F108003044059300F047FB059B44
:1007E00008B10426ACE703F109003044059300F09A
:1007F0003DFB059B0028F4D133440593187A00F0A3
:10080000B7FB059B587A00F0B3FB56F80900BBF123
:10081000000F00F0918000F037FA834656F8090087
:1008200000F024FA626811680C2202FB08664FEAA5
:10083000880303F5A073194481465A46307A00F0C4
:1008400061FB6368707A19684A4601F5A47100F08B
:1008500059FB0123F3726368424A1B7902EB43039D
:1008600018EE101A0022204603F80820FFF766FE53
:10087000B8F1000F3FF478AFDAF81030B3F5805FCD
:1008800001D3092F60D1039B1B7813B1012F38BF0F
:10089000012700238DF8193060688DF818704FF427
:1008A000E063ADF81A3003792F4A079306A900F0E8
:1008B0009BFB064600287FF443AF6068DAF81020FF
:1008C0000368D3F81075FFB24FEA127CC7F120011C
:1008D00012010CFA01F1A7F1200322FA07F72CFA12
:1008E00003F30F431F434FF00108AF6100F022FCF8
:1008F00004233A466068CDF80080022100F037FCFE
:100900000221606800F05BFC029BEB616368174AA0
:100910001B7985F8218042F82340154AFF21D154E4
:1009200011E71F2B86BF0E4903F01F034FF0A041B4
:100930009A40C1F8082549E700F098F9834656F82F
:10094000090000F0A1F96DE75B08013796E70B2677
:10095000F9E60826F7E600BFE80F00F040000020A7
:100960000003005021000020A50400000800002022
:100970001C0000202DE9F0470768DFF8689000268A
:1009800004463D46B0464FF00C0A63681B7909EBFC
:10099000430303F80680EB7A73B1236828680AFBE7
:1009A0000633997AB1FA81F1490900F07BF9286898
:1009B00000F04AF9C5F804800C3576B16068084A41
:1009C0000379FF21D15400F0B5FB606800F074FB9F
:1009D000022387F82130BDE8F0870126D5E700BF64
:1009E0001C00002021000020034B187810B90122C0
:1009F0001A707047852070474100002000F1804048
:100A000000F5C040002382B0036003680193019B9E
:100A100002B0704703681F2B83BF03F01F030360FE
:100A200001484FF0A04070470003005007B5019007
:100A300001A8FFF7EFFF019B00EB8300D0F8003720
:100A400023F44033C0F80037D0F8003743EA0141BF
:100A5000C0F8001703B05DF804FB0000054B4FF031
:100A6000FF32072843F8202084BFC01880F84C20AC
:100A7000704700BF4400002010B5174C94F85B305D
:100A800043BB04F124033021FF22013911F0FF019F
:100A900003F8012BF9D1C8B2FFF7E0FF01310929B2
:100AA000F9D1062200210D4800F0CCFC0C4BC022ED
:100AB00083F8062340221A604FF4BE70FFF79EFFB2
:100AC000084B4FF00042C3F80423012384F85B3045
:100AD000002010BD0820FCE7440000209900002001
:100AE00000E100E000600040034B93F85B00003839
:100AF00018BF0120704700BF4400002037B5354BB8
:100B00001A18044692F92400013061D1887800282F
:100B100052D01846002250F8045B013546D118190E
:100B200080F82420002043F82200920002F1804245
:100B300002F5C0420B78D2F81055487825F4991583
:100B40001B04000525F4F85500F4801003F440332D
:100B5000C2F8105503432002D2F8105500F47C501F
:100B600003432B43C2F810354A780194012A01A8A7
:100B700026D1FFF74FFF019B9A40C0F8082501A836
:100B80000194FFF747FF019B134903F5E07303222C
:100B900040F8232024FA02F2012304F0070003FAAC
:100BA00000F08B5C18438854002003E00132082ACF
:100BB000B1D1042003B030BDFE2382F82430D3E746
:100BC000FFF728FF019A01239340C0F80C35D6E7C0
:100BD0000820EFE7440000209900002037B5174CAB
:100BE0002518014695F82400072809D8FFF736FF95
:100BF00095F92430124A03F5A273002042F823002D
:100C00006318FF220F4D83F82420CC0801F007035E
:100C100001229A402B5D13420DD001A80191FFF7EC
:100C2000F9FE019B03F5E073022140F823102B5DD0
:100C300023EA02022A5503B030BD00BF4400002061
:100C40000060004099000020074B184490F92430C0
:100C50009B0003F1804303F5C043D3F8102542F015
:100C60000302C3F81025704744000020054B1844C8
:100C700090F924000C308000C0B200F1804000F5F3
:100C8000C040704744000020054B184490F92400F0
:100C900018308000C0B200F1804000F5C0407047BD
:100CA000440000200A4B1844003990F924304FEAE0
:100CB000830303F1804303F5C04318BF0121D3F838
:100CC000102522F4801242EA0152C3F81025704721
:100CD000440000202DE9F047002488B0CDE902440B
:100CE0005E4D4FF48072012102F1804303F5C04351
:100CF00090B21B68012B06D1D5F804330B4202D009
:100D0000FFF77CFE0C430432B2F5907F4FEA4101BD
:100D1000EAD1534B1B68012B0ED14FF4BE70FFF785
:100D20006DFE4FF0A04344F00044D3F81035029319
:100D30004C4BD3F81035039314F0FF0F1AD04A4FE1
:100D400001260025264210D0AB0003F1804303F5B5
:100D5000C043D3F81005D3F8101557F8253023B148
:100D6000C1F30141C0F3052098470135082D4FEA32
:100D70004606E7D1002C6ADA04AF002304937B60B7
:100D80004FF0FF33CDE90633374EDFF8D8904FF000
:100D9000010896F9543096F85420013322F0C0042B
:100DA00055D008AB03EBD40A02F007011AF8083C4F
:100DB00008FA01F10B424FEAD40048D033199209E6
:100DC00093F9243056F823502DB9032A3FD13B5CC8
:100DD0000B433B5401E0032AF9D001A80194FFF72B
:100DE00019FE019B03F5E07350F823301AF8180C34
:100DF0000842C3F3014307D0022B28D1032A1CD099
:100E00002DB34FF0000A1CE0032B20D1032AF7D1A9
:100E100002212046FFF70AFE8DB94FF0A043029948
:100E2000D3F81025D9F81035914213D002920393CC
:100E3000049A059B06920793ABE71146E9E74FF04A
:100E4000010A11462046A847BAF1000FE5D108B0C3
:100E5000BDE8F08703999942F9D0E7E700600040C8
:100E60007C61004000030050440000202DE9F84F51
:100E7000134DDFF8508007464FF0000A04264FF06C
:100E800001095FFA8AFB002009FA0BF4FFF7DAFA8E
:100E90002C420AD0D8F8003014EA030201BF2343E1
:100EA000C8F8003087F800B016460020FFF7CCFAEB
:100EB0001EB1A5430AF1010AE3D13046BDE8F88F1F
:100EC000FFFF0F00A0000020012310B503FA00F47B
:100ED000C4F313037BB1094B0020C3F80845FFF7A7
:100EE000B1FA074B186820EA040018600020FFF7E9
:100EF000ABFA002010BD0720FCE700BF00F0014066
:100F0000A000002010B5A1B19AB101238340C3F322
:100F1000130484B10A4C246823420ED0C00000F1AF
:100F2000804000F5F830C0F81015C0F814250020F6
:100F300010BD0E20FCE70720FAE70820F8E700BF05
:100F4000A0000020012303FA00F0C0F313031BB13B
:100F5000054B1B68184204D0044BC3F8040500205D
:100F600070470820704700BFA000002000F001403B
:100F7000012303FA00F0C0F313031BB1054B1B68F8
:100F8000184204D0044BC3F808050020704708201D
:100F9000704700BFA000002000F001402DE9F7439A
:100FA000002406460F4600F5A0754FF48038A14690
:100FB0002B688BB1D6F8043308FA04F21A420BD02E
:100FC000C5F800902B680193019BA30003F5A07363
:100FD00098B2D7E9003198470134042C05F1040593
:100FE000E6D103B0BDE8F083F7B506792F4D0C23A9
:100FF0007343EF183C7A002C56D1EA504B687B6063
:10100000477903682246D0B2874244D843F3073475
:10101000C878002CA8BF04F16047C3F30732BABFF9
:10102000234F02F00F0C07F561474FEA4010C0B2A2
:10103000B4BF07F80C0087F80003640901201D4FB6
:1010400002F01F0200FA02F247F82420D3F8044508
:101050004A7824F0030402F003022243C3F8042573
:10106000D3F808458A7824F0030402F003022243EF
:10107000C3F808250A78D3F8104502F00F0224F0CF
:101080000F010A43C3F810250C2303FB06552872F1
:10109000002003B0F0BD900000F5A07001321C509C
:1010A000185801900198AEE70820F2E7A40000204C
:1010B00014ED00E000E100E0036801221A6003790A
:1010C000034A0C2101FB032302221A72704700BF5E
:1010D000A40000200368044901221A6103790C204E
:1010E00000FB03131A727047A400002038B5036890
:1010F00043F30732C3F3043552090121A9402032DA
:101100000A4D45F822100446D3F8002200254FF07E
:10111000FF32C3F80052C3F80823FFF7DBFF23793F
:10112000034A0C2101FB03231D7238BD00E100E0DE
:10113000A400002003680122DA60704737B54FF43D
:10114000803400688C407BB18B0003F5A0730025D0
:10115000C550C3580193019BC0F8044301F5A87121
:1011600040F8212003B030BDC0F80843F6E770B462
:10117000046840F20116D4F800528E4025EA0605B4
:10118000C4F80052D4F800522B43C4F800329DF842
:101190000C3070BCFFF7D2BF8B0003F5A073026860
:1011A0009BB20020D05082B0D3580193019B4FF4E2
:1011B000803303FA01F1C2F8041302B070470268E9
:1011C0004FF4803303FA01F1C2F8081370470000AE
:1011D00001490248FFF7E2BEA40000200080004061
:1011E00001490248FFF7DABEB0000020009000403D
:1011F000704700002DE9F041184D0FCD86B001ACCD
:101200000FC42B68164A1748236001A9FFF74EFA4E
:1012100008B1FFF7DDF81348134E124FFFF7AAFB92
:101220006FF0010846F001060024312C8ABF08FB4C
:1012300004F26200C83295B22A4600213846FFF710
:101240002BFA1128F8D00A254FF47A40B047013D17
:10125000FAD10134642CE8D1E6E700BFAC140000F9
:10126000F1110000C0140000D0140000054B1B68F1
:10127000082B01BF044B1868B0FA80F0400918BF72
:1012800000207047300100103401001008B54FF005
:1012900080430022C3F80C21C3F81021C3F838257D
:1012A0004FF0805203F54043D2F80414C3F82015E0
:1012B000D2F80814C3F82415D2F80C14C3F8281572
:1012C000D2F81014C3F82C15D2F81414C3F8301542
:1012D000D2F81814C3F83415D2F81C14C3F840150A
:1012E000D2F82014C3F84415D2F82414C3F84815D2
:1012F000D2F82814C3F84C15D2F82C14C3F85015A2
:10130000D2F83014C3F85415D2F83414C3F8601569
:10131000D2F83814C3F86415D2F83C14C3F8681531
:10132000D2F84014C3F86C15D2F84424C3F87025E1
:10133000FFF79CFF10B1384B384A1A60FFF796FF51
:1013400018B1374BFB22C3F81825FFF78FFF48B1C0
:101350003449354B0A681B6822F00F0203F00F0373
:1013600013430B60FFF782FF18B1304B4FF400724C
:101370001A604FF08043D3F80024D20744BF6FF0C7
:101380000102C3F800242A4AD2F8883043F47003DB
:10139000C2F88830BFF34F8FBFF36F8F4FF0102329
:1013A000D3F80022002A03DBD3F80432002B2FDA13
:1013B000204B0122C3F80425D3F80024002AFBD0D7
:1013C0004FF010221221C2F80012D3F80024002A94
:1013D000FBD04FF010231222C3F80422154B1A46FB
:1013E000D3F800140029FBD00021C3F80415D2F86B
:1013F0000034002BFBD0BFF34F8F0D490E4BCA6852
:1014000002F4E0621343CB60BFF34F8F00BFFDE7F0
:101410000A4B0B4A1A6008BD8C56004048810300F5
:1014200000F00040E40E00405802001040960240D8
:1014300000ED00E000E001400400FA05000000209B
:101440000090D0038446002A2DD010F0030F04D062
:1014500000F8011B013A26D0F7E7C9B241EA0121A1
:1014600041EA0141202A12D3A2F120022DE9F00322
:101470000B460C460D460E460F4688468946A0E8A8
:10148000FA03203AFBD2BDE8F00320320BD0042A45
:1014900005D340F8041B043A05D0042AF9D200F819
:0A14A000011B013AFBD160467047C2
:1014AC000D000000FFFFFFFF000000000100000026
:1014BC00C8000000BC000020D81400000000000090
:1014CC00000000000338FDD8704700000090004079
:0414DC000104000007
:0414E0000090D003A5
:040000030000037581
:00000001FF
